{
  "transactions": [
    {
      "hash": "0x026d27085160a1b1cf7cf35228fdd978e9f071330461e711c577c3c57af4916e",
      "transactionType": "CALL",
      "contractName": null,
      "contractAddress": "0xA47757c742f4177dE4eEA192380127F8B62455F5",
      "function": "approve(address,uint256)",
      "arguments": [
        "0xd962b16F4ec712D705106674E944B04614F077be",
        "2000000000000000000"
      ],
      "transaction": {
        "type": "0x02",
        "from": "0x5dcccaad516d68e01823aff6e75de8be73fb57bc",
        "to": "0xa47757c742f4177de4eea192380127f8b62455f5",
        "gas": "0xd5d3",
        "value": "0x0",
        "data": "0x095ea7b3000000000000000000000000d962b16f4ec712d705106674e944b04614f077be0000000000000000000000000000000000000000000000001bc16d674ec80000",
        "nonce": "0x15",
        "accessList": []
      },
      "additionalContracts": [],
      "isFixedGasLimit": false
    },
    {
      "hash": "0xec3eac2a63f983e232ea9166a4340e20664a5f42c65ec1994fdce01c885e7e8e",
      "transactionType": "CALL",
      "contractName": null,
      "contractAddress": "0xFDA93151f6146f763D3A80Ddb4C5C7B268469465",
      "function": "approve(address,uint256)",
      "arguments": [
        "0xd962b16F4ec712D705106674E944B04614F077be",
        "2000000000000000000"
      ],
      "transaction": {
        "type": "0x02",
        "from": "0x5dcccaad516d68e01823aff6e75de8be73fb57bc",
        "to": "0xfda93151f6146f763d3a80ddb4c5c7b268469465",
        "gas": "0xd5d3",
        "value": "0x0",
        "data": "0x095ea7b3000000000000000000000000d962b16f4ec712d705106674e944b04614f077be0000000000000000000000000000000000000000000000001bc16d674ec80000",
        "nonce": "0x16",
        "accessList": []
      },
      "additionalContracts": [],
      "isFixedGasLimit": false
    },
    {
      "hash": "0x8b28949090db1c1fdb5d70c6ef19582df2e1db55377a257087f2e1767e1675fe",
      "transactionType": "CALL",
      "contractName": null,
      "contractAddress": "0xd962b16F4ec712D705106674E944B04614F077be",
      "function": "modifyLiquidity((address,address,uint24,int24,address),(int24,int24,int256),bytes)",
      "arguments": [
        "(0xA47757c742f4177dE4eEA192380127F8B62455F5, 0xFDA93151f6146f763D3A80Ddb4C5C7B268469465, 4000, 10, 0x0304C8bd9b6e2C7C5c70fb62F812c6e2b00D5BA3)",
        "(-600, 600, 1000000000000000000)",
        "0x"
      ],
      "transaction": {
        "type": "0x02",
        "from": "0x5dcccaad516d68e01823aff6e75de8be73fb57bc",
        "to": "0xd962b16f4ec712d705106674e944b04614f077be",
        "gas": "0x4bb4b",
        "value": "0x0",
        "data": "0xbec999dd000000000000000000000000a47757c742f4177de4eea192380127f8b62455f5000000000000000000000000fda93151f6146f763d3a80ddb4c5c7b2684694650000000000000000000000000000000000000000000000000000000000000fa0000000000000000000000000000000000000000000000000000000000000000a0000000000000000000000000304c8bd9b6e2c7c5c70fb62f812c6e2b00d5ba3fffffffffffffffffffffffffffffffffffffffffffffffffffffffffffffda800000000000000000000000000000000000000000000000000000000000002580000000000000000000000000000000000000000000000000de0b6b3a764000000000000000000000000000000000000000000000000000000000000000001200000000000000000000000000000000000000000000000000000000000000000",
        "nonce": "0x17",
        "accessList": []
      },
      "additionalContracts": [],
      "isFixedGasLimit": false
    }
  ],
  "receipts": [
    {
      "transactionHash": "0x026d27085160a1b1cf7cf35228fdd978e9f071330461e711c577c3c57af4916e",
      "transactionIndex": "0x1",
      "blockHash": "0x51ff677182b5b0a4479eddd008a27c4fa395fadeda87c8dfb69abdb0e49ebfdd",
      "blockNumber": "0x16dfbbe",
      "from": "0x5dCcCAAd516D68E01823AfF6E75dE8bE73fb57bC",
      "to": "0xA47757c742f4177dE4eEA192380127F8B62455F5",
      "cumulativeGasUsed": "0x99d1",
      "gasUsed": "0x99d1",
      "contractAddress": null,
      "logs": [
        {
          "address": "0xA47757c742f4177dE4eEA192380127F8B62455F5",
          "topics": [
            "0x8c5be1e5ebec7d5bd14f71427d1e84f3dd0314c0f7b2291e5b200ac8c7c3b925",
            "0x0000000000000000000000005dcccaad516d68e01823aff6e75de8be73fb57bc",
            "0x000000000000000000000000d962b16f4ec712d705106674e944b04614f077be"
          ],
          "data": "0x0000000000000000000000000000000000000000000000001bc16d674ec80000",
          "blockHash": "0x51ff677182b5b0a4479eddd008a27c4fa395fadeda87c8dfb69abdb0e49ebfdd",
          "blockNumber": "0x16dfbbe",
          "transactionHash": "0x026d27085160a1b1cf7cf35228fdd978e9f071330461e711c577c3c57af4916e",
          "transactionIndex": "0x1",
          "logIndex": "0x0",
          "removed": false
        }
      ],
      "status": "0x1",
      "logsBloom": "0x00000000000000000000000000000000000000000000000000000000000000000000000000000000000000000000000000000000000000000000000000200000000000000000000000000000000000000000000000000000000000001000000000000000000000000000000000000000000000000000000000000008000000000000000000000000000000000000004000000000000000000000000000000000020000000000000010000800000000000000000000000000000001000000000000000000000000000000000000000000000000000000800000000000000000001010000000000000000000000000000000000000000000000004000000000000",
      "type": "0x2",
      "effectiveGasPrice": "0x5f5e100"
    },
    {
      "transactionHash": "0xec3eac2a63f983e232ea9166a4340e20664a5f42c65ec1994fdce01c885e7e8e",
      "transactionIndex": "0x1",
      "blockHash": "0x71e6172b73368e331b745eb39864e4c7601cea19956dd477df5d83caf7ef1510",
      "blockNumber": "0x16dfbda",
      "from": "0x5dCcCAAd516D68E01823AfF6E75dE8bE73fb57bC",
      "to": "0xFDA93151f6146f763D3A80Ddb4C5C7B268469465",
      "cumulativeGasUsed": "0x99d1",
      "gasUsed": "0x99d1",
      "contractAddress": null,
      "logs": [
        {
          "address": "0xFDA93151f6146f763D3A80Ddb4C5C7B268469465",
          "topics": [
            "0x8c5be1e5ebec7d5bd14f71427d1e84f3dd0314c0f7b2291e5b200ac8c7c3b925",
            "0x0000000000000000000000005dcccaad516d68e01823aff6e75de8be73fb57bc",
            "0x000000000000000000000000d962b16f4ec712d705106674e944b04614f077be"
          ],
          "data": "0x0000000000000000000000000000000000000000000000001bc16d674ec80000",
          "blockHash": "0x71e6172b73368e331b745eb39864e4c7601cea19956dd477df5d83caf7ef1510",
          "blockNumber": "0x16dfbda",
          "transactionHash": "0xec3eac2a63f983e232ea9166a4340e20664a5f42c65ec1994fdce01c885e7e8e",
          "transactionIndex": "0x1",
          "logIndex": "0x0",
          "removed": false
        }
      ],
      "status": "0x1",
      "logsBloom": "0x00000010000000000000000000000000000000000000000400000000000000000000000000000000000000000000000040000000000000000000000000200000000000000000000000000000000000000000000000000000000000001000000000000000000000000000000000000000000000000000000000000008000000000000000000000000000000000000000000000000000000000000000000000000020000000000000010000000000000000000000000000000000001000000000000000000000000000000000000000000000000000000800000000000000000001010000000000000000000000000000000000000000000000000000000000000",
      "type": "0x2",
      "effectiveGasPrice": "0x5f5e100"
    },
    {
      "transactionHash": "0x8b28949090db1c1fdb5d70c6ef19582df2e1db55377a257087f2e1767e1675fe",
      "transactionIndex": "0x1",
      "blockHash": "0x60378b11d7c6ec58cb1d33980280fde09cb4ab892d9aeed8bf4c8c1bc2b4ca3a",
      "blockNumber": "0x16dfbf1",
      "from": "0x5dCcCAAd516D68E01823AfF6E75dE8bE73fb57bC",
      "to": "0xd962b16F4ec712D705106674E944B04614F077be",
      "cumulativeGasUsed": "0x2e6ae",
      "gasUsed": "0x2e6ae",
      "contractAddress": null,
      "logs": [
        {
          "address": "0xE5dF461803a59292c6c03978c17857479c40bc46",
          "topics": [
            "0x541c041c2cce48e614b3de043c9280f06b6164c0a1741649e2de3c3d375f7974",
            "0x8d161374ff7aae0d75bd014d7210b0de3d0ad9ff6fcb914d61292487765121f8",
            "0x000000000000000000000000d962b16f4ec712d705106674e944b04614f077be"
          ],
          "data": "0xfffffffffffffffffffffffffffffffffffffffffffffffffffffffffffffda800000000000000000000000000000000000000000000000000000000000002580000000000000000000000000000000000000000000000000de0b6b3a7640000",
          "blockHash": "0x60378b11d7c6ec58cb1d33980280fde09cb4ab892d9aeed8bf4c8c1bc2b4ca3a",
          "blockNumber": "0x16dfbf1",
          "transactionHash": "0x8b28949090db1c1fdb5d70c6ef19582df2e1db55377a257087f2e1767e1675fe",
          "transactionIndex": "0x1",
          "logIndex": "0x0",
          "removed": false
        },
        {
          "address": "0xA47757c742f4177dE4eEA192380127F8B62455F5",
          "topics": [
            "0xddf252ad1be2c89b69c2b068fc378daa952ba7f163c4a11628f55a4df523b3ef",
            "0x0000000000000000000000005dcccaad516d68e01823aff6e75de8be73fb57bc",
            "0x000000000000000000000000e5df461803a59292c6c03978c17857479c40bc46"
          ],
          "data": "0x0000000000000000000000000000000000000000000000000068fe4e8b7e8592",
          "blockHash": "0x60378b11d7c6ec58cb1d33980280fde09cb4ab892d9aeed8bf4c8c1bc2b4ca3a",
          "blockNumber": "0x16dfbf1",
          "transactionHash": "0x8b28949090db1c1fdb5d70c6ef19582df2e1db55377a257087f2e1767e1675fe",
          "transactionIndex": "0x1",
          "logIndex": "0x1",
          "removed": false
        },
        {
          "address": "0xA47757c742f4177dE4eEA192380127F8B62455F5",
          "topics": [
            "0x8c5be1e5ebec7d5bd14f71427d1e84f3dd0314c0f7b2291e5b200ac8c7c3b925",
            "0x0000000000000000000000005dcccaad516d68e01823aff6e75de8be73fb57bc",
            "0x000000000000000000000000d962b16f4ec712d705106674e944b04614f077be"
          ],
          "data": "0x0000000000000000000000000000000000000000000000001b586f18c3497a6e",
          "blockHash": "0x60378b11d7c6ec58cb1d33980280fde09cb4ab892d9aeed8bf4c8c1bc2b4ca3a",
          "blockNumber": "0x16dfbf1",
          "transactionHash": "0x8b28949090db1c1fdb5d70c6ef19582df2e1db55377a257087f2e1767e1675fe",
          "transactionIndex": "0x1",
          "logIndex": "0x2",
          "removed": false
        },
        {
          "address": "0xFDA93151f6146f763D3A80Ddb4C5C7B268469465",
          "topics": [
            "0xddf252ad1be2c89b69c2b068fc378daa952ba7f163c4a11628f55a4df523b3ef",
            "0x0000000000000000000000005dcccaad516d68e01823aff6e75de8be73fb57bc",
            "0x000000000000000000000000e5df461803a59292c6c03978c17857479c40bc46"
          ],
          "data": "0x0000000000000000000000000000000000000000000000000068fe4e8b7e8592",
          "blockHash": "0x60378b11d7c6ec58cb1d33980280fde09cb4ab892d9aeed8bf4c8c1bc2b4ca3a",
          "blockNumber": "0x16dfbf1",
          "transactionHash": "0x8b28949090db1c1fdb5d70c6ef19582df2e1db55377a257087f2e1767e1675fe",
          "transactionIndex": "0x1",
          "logIndex": "0x3",
          "removed": false
        },
        {
          "address": "0xFDA93151f6146f763D3A80Ddb4C5C7B268469465",
          "topics": [
            "0x8c5be1e5ebec7d5bd14f71427d1e84f3dd0314c0f7b2291e5b200ac8c7c3b925",
            "0x0000000000000000000000005dcccaad516d68e01823aff6e75de8be73fb57bc",
            "0x000000000000000000000000d962b16f4ec712d705106674e944b04614f077be"
          ],
          "data": "0x0000000000000000000000000000000000000000000000001b586f18c3497a6e",
          "blockHash": "0x60378b11d7c6ec58cb1d33980280fde09cb4ab892d9aeed8bf4c8c1bc2b4ca3a",
          "blockNumber": "0x16dfbf1",
          "transactionHash": "0x8b28949090db1c1fdb5d70c6ef19582df2e1db55377a257087f2e1767e1675fe",
          "transactionIndex": "0x1",
          "logIndex": "0x4",
          "removed": false
        }
      ],
      "status": "0x1",
      "logsBloom": "0x00000010100000000000400000000100000000000000000402000000000000000000000000000000000000000004000040000000000000000000800000200000000000000000000000000088000000000000000000000000000000001000000010000000000000000000000000000000000000000000000000000018000000000000000000000000000000000000004000000000000000000000000040000000020000000000000010000800000000000000000000000000000001000001000000000002008000000000000000000000000000000000800000000000000000001010000000000000040000000000000000000000000000000004000000000000",
      "type": "0x2",
      "effectiveGasPrice": "0x5f5e100"
    }
  ],
  "libraries": [],
  "pending": [],
  "returns": {},
  "timestamp": 1710648457,
  "chain": 421614,
  "commit": "8710d15"
}