{
  "transactions": [
    {
      "hash": "0x555db707e2c70c6d61d8cba334f105dabd1a61ce072f46dcdcb780dc856d4386",
      "transactionType": "CALL",
      "contractName": null,
      "contractAddress": "0xA47757c742f4177dE4eEA192380127F8B62455F5",
      "function": "approve(address,uint256)",
      "arguments": [
        "0xd962b16F4ec712D705106674E944B04614F077be",
        "2000000000000000000"
      ],
      "transaction": {
        "type": "0x02",
        "from": "0x5dcccaad516d68e01823aff6e75de8be73fb57bc",
        "to": "0xa47757c742f4177de4eea192380127f8b62455f5",
        "gas": "0x1626a",
        "value": "0x0",
        "data": "0x095ea7b3000000000000000000000000d962b16f4ec712d705106674e944b04614f077be0000000000000000000000000000000000000000000000001bc16d674ec80000",
        "nonce": "0x27",
        "accessList": []
      },
      "additionalContracts": [],
      "isFixedGasLimit": false
    },
    {
      "hash": "0xdf344c5f6ea0b24281fd039b9feeac786105d437b1c160528e142db05600d4a8",
      "transactionType": "CALL",
      "contractName": null,
      "contractAddress": "0xFDA93151f6146f763D3A80Ddb4C5C7B268469465",
      "function": "approve(address,uint256)",
      "arguments": [
        "0xd962b16F4ec712D705106674E944B04614F077be",
        "2000000000000000000"
      ],
      "transaction": {
        "type": "0x02",
        "from": "0x5dcccaad516d68e01823aff6e75de8be73fb57bc",
        "to": "0xfda93151f6146f763d3a80ddb4c5c7b268469465",
        "gas": "0x1626a",
        "value": "0x0",
        "data": "0x095ea7b3000000000000000000000000d962b16f4ec712d705106674e944b04614f077be0000000000000000000000000000000000000000000000001bc16d674ec80000",
        "nonce": "0x28",
        "accessList": []
      },
      "additionalContracts": [],
      "isFixedGasLimit": false
    },
    {
      "hash": "0xf602daa45c4d57253f868c930c410954655a8d0e5883278e99419a8e4966138c",
      "transactionType": "CALL",
      "contractName": null,
      "contractAddress": "0xd962b16F4ec712D705106674E944B04614F077be",
      "function": "modifyLiquidity((address,address,uint24,int24,address),(int24,int24,int256),bytes)",
      "arguments": [
        "(0xA47757c742f4177dE4eEA192380127F8B62455F5, 0xFDA93151f6146f763D3A80Ddb4C5C7B268469465, 4000, 10, 0x030e0A80f42E3b943a4599B6E3F1712214511386)",
        "(-600, 600, 1000000000000000000)",
        "0x"
      ],
      "transaction": {
        "type": "0x02",
        "from": "0x5dcccaad516d68e01823aff6e75de8be73fb57bc",
        "to": "0xd962b16f4ec712d705106674e944b04614f077be",
        "gas": "0x8024d",
        "value": "0x0",
        "data": "0xbec999dd000000000000000000000000a47757c742f4177de4eea192380127f8b62455f5000000000000000000000000fda93151f6146f763d3a80ddb4c5c7b2684694650000000000000000000000000000000000000000000000000000000000000fa0000000000000000000000000000000000000000000000000000000000000000a000000000000000000000000030e0a80f42e3b943a4599b6e3f1712214511386fffffffffffffffffffffffffffffffffffffffffffffffffffffffffffffda800000000000000000000000000000000000000000000000000000000000002580000000000000000000000000000000000000000000000000de0b6b3a764000000000000000000000000000000000000000000000000000000000000000001200000000000000000000000000000000000000000000000000000000000000000",
        "nonce": "0x29",
        "accessList": []
      },
      "additionalContracts": [],
      "isFixedGasLimit": false
    }
  ],
  "receipts": [
    {
      "transactionHash": "0x555db707e2c70c6d61d8cba334f105dabd1a61ce072f46dcdcb780dc856d4386",
      "transactionIndex": "0x1",
      "blockHash": "0x7db4190fae0eef4b4cfd41941d8a3745216444f66b4936f2e5ce31cc1531850d",
      "blockNumber": "0x16eac2e",
      "from": "0x5dCcCAAd516D68E01823AfF6E75dE8bE73fb57bC",
      "to": "0xA47757c742f4177dE4eEA192380127F8B62455F5",
      "cumulativeGasUsed": "0xefdc",
      "gasUsed": "0xefdc",
      "contractAddress": null,
      "logs": [
        {
          "address": "0xA47757c742f4177dE4eEA192380127F8B62455F5",
          "topics": [
            "0x8c5be1e5ebec7d5bd14f71427d1e84f3dd0314c0f7b2291e5b200ac8c7c3b925",
            "0x0000000000000000000000005dcccaad516d68e01823aff6e75de8be73fb57bc",
            "0x000000000000000000000000d962b16f4ec712d705106674e944b04614f077be"
          ],
          "data": "0x0000000000000000000000000000000000000000000000001bc16d674ec80000",
          "blockHash": "0x7db4190fae0eef4b4cfd41941d8a3745216444f66b4936f2e5ce31cc1531850d",
          "blockNumber": "0x16eac2e",
          "transactionHash": "0x555db707e2c70c6d61d8cba334f105dabd1a61ce072f46dcdcb780dc856d4386",
          "transactionIndex": "0x1",
          "logIndex": "0x0",
          "removed": false
        }
      ],
      "status": "0x1",
      "logsBloom": "0x00000000000000000000000000000000000000000000000000000000000000000000000000000000000000000000000000000000000000000000000000200000000000000000000000000000000000000000000000000000000000001000000000000000000000000000000000000000000000000000000000000008000000000000000000000000000000000000004000000000000000000000000000000000020000000000000010000800000000000000000000000000000001000000000000000000000000000000000000000000000000000000800000000000000000001010000000000000000000000000000000000000000000000004000000000000",
      "type": "0x2",
      "effectiveGasPrice": "0x5f5e100"
    },
    {
      "transactionHash": "0xdf344c5f6ea0b24281fd039b9feeac786105d437b1c160528e142db05600d4a8",
      "transactionIndex": "0x1",
      "blockHash": "0xb2f35b3f9d9f0caef6c3c75f95329960ddd93ad5a0756bd43c19a45e37fcd16a",
      "blockNumber": "0x16eac47",
      "from": "0x5dCcCAAd516D68E01823AfF6E75dE8bE73fb57bC",
      "to": "0xFDA93151f6146f763D3A80Ddb4C5C7B268469465",
      "cumulativeGasUsed": "0xefdc",
      "gasUsed": "0xefdc",
      "contractAddress": null,
      "logs": [
        {
          "address": "0xFDA93151f6146f763D3A80Ddb4C5C7B268469465",
          "topics": [
            "0x8c5be1e5ebec7d5bd14f71427d1e84f3dd0314c0f7b2291e5b200ac8c7c3b925",
            "0x0000000000000000000000005dcccaad516d68e01823aff6e75de8be73fb57bc",
            "0x000000000000000000000000d962b16f4ec712d705106674e944b04614f077be"
          ],
          "data": "0x0000000000000000000000000000000000000000000000001bc16d674ec80000",
          "blockHash": "0xb2f35b3f9d9f0caef6c3c75f95329960ddd93ad5a0756bd43c19a45e37fcd16a",
          "blockNumber": "0x16eac47",
          "transactionHash": "0xdf344c5f6ea0b24281fd039b9feeac786105d437b1c160528e142db05600d4a8",
          "transactionIndex": "0x1",
          "logIndex": "0x0",
          "removed": false
        }
      ],
      "status": "0x1",
      "logsBloom": "0x00000010000000000000000000000000000000000000000400000000000000000000000000000000000000000000000040000000000000000000000000200000000000000000000000000000000000000000000000000000000000001000000000000000000000000000000000000000000000000000000000000008000000000000000000000000000000000000000000000000000000000000000000000000020000000000000010000000000000000000000000000000000001000000000000000000000000000000000000000000000000000000800000000000000000001010000000000000000000000000000000000000000000000000000000000000",
      "type": "0x2",
      "effectiveGasPrice": "0x5f5e100"
    },
    {
      "transactionHash": "0xf602daa45c4d57253f868c930c410954655a8d0e5883278e99419a8e4966138c",
      "transactionIndex": "0x1",
      "blockHash": "0x22c45605b16c125d674148866eb7f9d0ef012d3a8403db460f0f153a1e0b8b8f",
      "blockNumber": "0x16eac5f",
      "from": "0x5dCcCAAd516D68E01823AfF6E75dE8bE73fb57bC",
      "to": "0xd962b16F4ec712D705106674E944B04614F077be",
      "cumulativeGasUsed": "0x54581",
      "gasUsed": "0x54581",
      "contractAddress": null,
      "logs": [
        {
          "address": "0xE5dF461803a59292c6c03978c17857479c40bc46",
          "topics": [
            "0x541c041c2cce48e614b3de043c9280f06b6164c0a1741649e2de3c3d375f7974",
            "0xb707601b547d329c2588a18b028d6b20ff75c5f6f364c133ad05b8785a1df7e3",
            "0x000000000000000000000000d962b16f4ec712d705106674e944b04614f077be"
          ],
          "data": "0xfffffffffffffffffffffffffffffffffffffffffffffffffffffffffffffda800000000000000000000000000000000000000000000000000000000000002580000000000000000000000000000000000000000000000000de0b6b3a7640000",
          "blockHash": "0x22c45605b16c125d674148866eb7f9d0ef012d3a8403db460f0f153a1e0b8b8f",
          "blockNumber": "0x16eac5f",
          "transactionHash": "0xf602daa45c4d57253f868c930c410954655a8d0e5883278e99419a8e4966138c",
          "transactionIndex": "0x1",
          "logIndex": "0x0",
          "removed": false
        },
        {
          "address": "0xA47757c742f4177dE4eEA192380127F8B62455F5",
          "topics": [
            "0xddf252ad1be2c89b69c2b068fc378daa952ba7f163c4a11628f55a4df523b3ef",
            "0x0000000000000000000000005dcccaad516d68e01823aff6e75de8be73fb57bc",
            "0x000000000000000000000000e5df461803a59292c6c03978c17857479c40bc46"
          ],
          "data": "0x0000000000000000000000000000000000000000000000000068fe4e8b7e8592",
          "blockHash": "0x22c45605b16c125d674148866eb7f9d0ef012d3a8403db460f0f153a1e0b8b8f",
          "blockNumber": "0x16eac5f",
          "transactionHash": "0xf602daa45c4d57253f868c930c410954655a8d0e5883278e99419a8e4966138c",
          "transactionIndex": "0x1",
          "logIndex": "0x1",
          "removed": false
        },
        {
          "address": "0xA47757c742f4177dE4eEA192380127F8B62455F5",
          "topics": [
            "0x8c5be1e5ebec7d5bd14f71427d1e84f3dd0314c0f7b2291e5b200ac8c7c3b925",
            "0x0000000000000000000000005dcccaad516d68e01823aff6e75de8be73fb57bc",
            "0x000000000000000000000000d962b16f4ec712d705106674e944b04614f077be"
          ],
          "data": "0x0000000000000000000000000000000000000000000000001b586f18c3497a6e",
          "blockHash": "0x22c45605b16c125d674148866eb7f9d0ef012d3a8403db460f0f153a1e0b8b8f",
          "blockNumber": "0x16eac5f",
          "transactionHash": "0xf602daa45c4d57253f868c930c410954655a8d0e5883278e99419a8e4966138c",
          "transactionIndex": "0x1",
          "logIndex": "0x2",
          "removed": false
        },
        {
          "address": "0xFDA93151f6146f763D3A80Ddb4C5C7B268469465",
          "topics": [
            "0xddf252ad1be2c89b69c2b068fc378daa952ba7f163c4a11628f55a4df523b3ef",
            "0x0000000000000000000000005dcccaad516d68e01823aff6e75de8be73fb57bc",
            "0x000000000000000000000000e5df461803a59292c6c03978c17857479c40bc46"
          ],
          "data": "0x0000000000000000000000000000000000000000000000000068fe4e8b7e8592",
          "blockHash": "0x22c45605b16c125d674148866eb7f9d0ef012d3a8403db460f0f153a1e0b8b8f",
          "blockNumber": "0x16eac5f",
          "transactionHash": "0xf602daa45c4d57253f868c930c410954655a8d0e5883278e99419a8e4966138c",
          "transactionIndex": "0x1",
          "logIndex": "0x3",
          "removed": false
        },
        {
          "address": "0xFDA93151f6146f763D3A80Ddb4C5C7B268469465",
          "topics": [
            "0x8c5be1e5ebec7d5bd14f71427d1e84f3dd0314c0f7b2291e5b200ac8c7c3b925",
            "0x0000000000000000000000005dcccaad516d68e01823aff6e75de8be73fb57bc",
            "0x000000000000000000000000d962b16f4ec712d705106674e944b04614f077be"
          ],
          "data": "0x0000000000000000000000000000000000000000000000001b586f18c3497a6e",
          "blockHash": "0x22c45605b16c125d674148866eb7f9d0ef012d3a8403db460f0f153a1e0b8b8f",
          "blockNumber": "0x16eac5f",
          "transactionHash": "0xf602daa45c4d57253f868c930c410954655a8d0e5883278e99419a8e4966138c",
          "transactionIndex": "0x1",
          "logIndex": "0x4",
          "removed": false
        }
      ],
      "status": "0x1",
      "logsBloom": "0x00000010100000000000400000000100000000000000000402000000000000000000000000000000000000000000000040000800000000000000800000200000000000000000000000000008000000000000000080000000000000001000000010000000000000000000000000000000000000000000000000000018000000000000000000000000000000000000004000000000000000000000000040000000020000000000000010000800000000000000000000000000000021000001000000000002000000000000000000000000000000000000800000000000000000001010000000000000040000000000000000000000000000000004000000000000",
      "type": "0x2",
      "effectiveGasPrice": "0x5f5e100"
    }
  ],
  "libraries": [],
  "pending": [],
  "returns": {},
  "timestamp": 1710660388,
  "chain": 421614,
  "commit": "d879b3f"
}