{
  "transactions": [
    {
      "hash": "0x8107d966ffd04a4fb41296e910a36d037f65ce051a48d5b20bf71927a25960f4",
      "transactionType": "CALL",
      "contractName": null,
      "contractAddress": "0xA47757c742f4177dE4eEA192380127F8B62455F5",
      "function": "approve(address,uint256)",
      "arguments": [
        "0xd962b16F4ec712D705106674E944B04614F077be",
        "2000000000000000000"
      ],
      "transaction": {
        "type": "0x02",
        "from": "0x5dcccaad516d68e01823aff6e75de8be73fb57bc",
        "to": "0xa47757c742f4177de4eea192380127f8b62455f5",
        "gas": "0x10852",
        "value": "0x0",
        "data": "0x095ea7b3000000000000000000000000d962b16f4ec712d705106674e944b04614f077be0000000000000000000000000000000000000000000000001bc16d674ec80000",
        "nonce": "0x2c",
        "accessList": []
      },
      "additionalContracts": [],
      "isFixedGasLimit": false
    },
    {
      "hash": "0x446b2cb68e2d5bee3496b56fbdcc602d8866b2954df19f3d4d9e42d9c6a5f5b4",
      "transactionType": "CALL",
      "contractName": null,
      "contractAddress": "0xFDA93151f6146f763D3A80Ddb4C5C7B268469465",
      "function": "approve(address,uint256)",
      "arguments": [
        "0xd962b16F4ec712D705106674E944B04614F077be",
        "2000000000000000000"
      ],
      "transaction": {
        "type": "0x02",
        "from": "0x5dcccaad516d68e01823aff6e75de8be73fb57bc",
        "to": "0xfda93151f6146f763d3a80ddb4c5c7b268469465",
        "gas": "0x10852",
        "value": "0x0",
        "data": "0x095ea7b3000000000000000000000000d962b16f4ec712d705106674e944b04614f077be0000000000000000000000000000000000000000000000001bc16d674ec80000",
        "nonce": "0x2d",
        "accessList": []
      },
      "additionalContracts": [],
      "isFixedGasLimit": false
    },
    {
      "hash": null,
      "transactionType": "CALL",
      "contractName": null,
      "contractAddress": "0xd962b16F4ec712D705106674E944B04614F077be",
      "function": "modifyLiquidity((address,address,uint24,int24,address),(int24,int24,int256),bytes)",
      "arguments": [
        "(0xA47757c742f4177dE4eEA192380127F8B62455F5, 0xFDA93151f6146f763D3A80Ddb4C5C7B268469465, 4000, 10, 0x030eF8F38E149C7954B481208a2305F9D6B82E8e)",
        "(-600, 600, 1000000000000000000)",
        "0x"
      ],
      "transaction": {
        "type": "0x02",
        "from": "0x5dcccaad516d68e01823aff6e75de8be73fb57bc",
        "to": "0xd962b16f4ec712d705106674e944b04614f077be",
        "gas": "0x76aea",
        "value": "0x0",
        "data": "0xbec999dd000000000000000000000000a47757c742f4177de4eea192380127f8b62455f5000000000000000000000000fda93151f6146f763d3a80ddb4c5c7b2684694650000000000000000000000000000000000000000000000000000000000000fa0000000000000000000000000000000000000000000000000000000000000000a000000000000000000000000030ef8f38e149c7954b481208a2305f9d6b82e8efffffffffffffffffffffffffffffffffffffffffffffffffffffffffffffda800000000000000000000000000000000000000000000000000000000000002580000000000000000000000000000000000000000000000000de0b6b3a764000000000000000000000000000000000000000000000000000000000000000001200000000000000000000000000000000000000000000000000000000000000000",
        "nonce": "0x2e",
        "accessList": []
      },
      "additionalContracts": [],
      "isFixedGasLimit": false
    }
  ],
  "receipts": [
    {
      "transactionHash": "0x8107d966ffd04a4fb41296e910a36d037f65ce051a48d5b20bf71927a25960f4",
      "transactionIndex": "0x1",
      "blockHash": "0x8e07f09592b7d17b755f3ff2a3ccdd80d994c80925724356248fede0f748266c",
      "blockNumber": "0x16eccea",
      "from": "0x5dCcCAAd516D68E01823AfF6E75dE8bE73fb57bC",
      "to": "0xA47757c742f4177dE4eEA192380127F8B62455F5",
      "cumulativeGasUsed": "0xb8dd",
      "gasUsed": "0xb8dd",
      "contractAddress": null,
      "logs": [
        {
          "address": "0xA47757c742f4177dE4eEA192380127F8B62455F5",
          "topics": [
            "0x8c5be1e5ebec7d5bd14f71427d1e84f3dd0314c0f7b2291e5b200ac8c7c3b925",
            "0x0000000000000000000000005dcccaad516d68e01823aff6e75de8be73fb57bc",
            "0x000000000000000000000000d962b16f4ec712d705106674e944b04614f077be"
          ],
          "data": "0x0000000000000000000000000000000000000000000000001bc16d674ec80000",
          "blockHash": "0x8e07f09592b7d17b755f3ff2a3ccdd80d994c80925724356248fede0f748266c",
          "blockNumber": "0x16eccea",
          "transactionHash": "0x8107d966ffd04a4fb41296e910a36d037f65ce051a48d5b20bf71927a25960f4",
          "transactionIndex": "0x1",
          "logIndex": "0x0",
          "removed": false
        }
      ],
      "status": "0x1",
      "logsBloom": "0x00000000000000000000000000000000000000000000000000000000000000000000000000000000000000000000000000000000000000000000000000200000000000000000000000000000000000000000000000000000000000001000000000000000000000000000000000000000000000000000000000000008000000000000000000000000000000000000004000000000000000000000000000000000020000000000000010000800000000000000000000000000000001000000000000000000000000000000000000000000000000000000800000000000000000001010000000000000000000000000000000000000000000000004000000000000",
      "type": "0x2",
      "effectiveGasPrice": "0x5f5e100"
    }
  ],
  "libraries": [],
  "pending": [
    "0x446b2cb68e2d5bee3496b56fbdcc602d8866b2954df19f3d4d9e42d9c6a5f5b4"
  ],
  "returns": {},
  "timestamp": 1710662593,
  "chain": 421614,
  "commit": "3cb35f7"
}