{
  "transactions": [
    {
      "hash": "0xd3d0a9b7d2e4c6ae8f3e3d7e68af88d1a2f3b6f66daa88a098d627813b44b76b",
      "transactionType": "CALL",
      "contractName": null,
      "contractAddress": "0xA47757c742f4177dE4eEA192380127F8B62455F5",
      "function": "approve(address,uint256)",
      "arguments": [
        "0xd962b16F4ec712D705106674E944B04614F077be",
        "2000000000000000000"
      ],
      "transaction": {
        "type": "0x02",
        "from": "0x5dcccaad516d68e01823aff6e75de8be73fb57bc",
        "to": "0xa47757c742f4177de4eea192380127f8b62455f5",
        "gas": "0x186ca",
        "value": "0x0",
        "data": "0x095ea7b3000000000000000000000000d962b16f4ec712d705106674e944b04614f077be0000000000000000000000000000000000000000000000001bc16d674ec80000",
        "nonce": "0x1b",
        "accessList": []
      },
      "additionalContracts": [],
      "isFixedGasLimit": false
    },
    {
      "hash": "0x0c0ad745321902b09f838d14c19af5894db790ae5b94d87a618881b73c7300dd",
      "transactionType": "CALL",
      "contractName": null,
      "contractAddress": "0xFDA93151f6146f763D3A80Ddb4C5C7B268469465",
      "function": "approve(address,uint256)",
      "arguments": [
        "0xd962b16F4ec712D705106674E944B04614F077be",
        "2000000000000000000"
      ],
      "transaction": {
        "type": "0x02",
        "from": "0x5dcccaad516d68e01823aff6e75de8be73fb57bc",
        "to": "0xfda93151f6146f763d3a80ddb4c5c7b268469465",
        "gas": "0x186ca",
        "value": "0x0",
        "data": "0x095ea7b3000000000000000000000000d962b16f4ec712d705106674e944b04614f077be0000000000000000000000000000000000000000000000001bc16d674ec80000",
        "nonce": "0x1c",
        "accessList": []
      },
      "additionalContracts": [],
      "isFixedGasLimit": false
    },
    {
      "hash": "0x83e84ff764b6a917207f8e7b2a32b9f8686c058669503b41968437d77ae1784d",
      "transactionType": "CALL",
      "contractName": null,
      "contractAddress": "0xd962b16F4ec712D705106674E944B04614F077be",
      "function": "modifyLiquidity((address,address,uint24,int24,address),(int24,int24,int256),bytes)",
      "arguments": [
        "(0xA47757c742f4177dE4eEA192380127F8B62455F5, 0xFDA93151f6146f763D3A80Ddb4C5C7B268469465, 4000, 10, 0x030418916cb8A600dc02d307204dD8828b3aA179)",
        "(-600, 600, 1000000000000000000)",
        "0x"
      ],
      "transaction": {
        "type": "0x02",
        "from": "0x5dcccaad516d68e01823aff6e75de8be73fb57bc",
        "to": "0xd962b16f4ec712d705106674e944b04614f077be",
        "gas": "0x8451c",
        "value": "0x0",
        "data": "0xbec999dd000000000000000000000000a47757c742f4177de4eea192380127f8b62455f5000000000000000000000000fda93151f6146f763d3a80ddb4c5c7b2684694650000000000000000000000000000000000000000000000000000000000000fa0000000000000000000000000000000000000000000000000000000000000000a000000000000000000000000030418916cb8a600dc02d307204dd8828b3aa179fffffffffffffffffffffffffffffffffffffffffffffffffffffffffffffda800000000000000000000000000000000000000000000000000000000000002580000000000000000000000000000000000000000000000000de0b6b3a764000000000000000000000000000000000000000000000000000000000000000001200000000000000000000000000000000000000000000000000000000000000000",
        "nonce": "0x1d",
        "accessList": []
      },
      "additionalContracts": [],
      "isFixedGasLimit": false
    }
  ],
  "receipts": [
    {
      "transactionHash": "0xd3d0a9b7d2e4c6ae8f3e3d7e68af88d1a2f3b6f66daa88a098d627813b44b76b",
      "transactionIndex": "0x1",
      "blockHash": "0x7ae3c0f1ee47cfc48eb7a8763266d77a1c61a8b1ccdbc7a08bd0aff9fbe1d662",
      "blockNumber": "0x16e1c1b",
      "from": "0x5dCcCAAd516D68E01823AfF6E75dE8bE73fb57bC",
      "to": "0xA47757c742f4177dE4eEA192380127F8B62455F5",
      "cumulativeGasUsed": "0x10545",
      "gasUsed": "0x10545",
      "contractAddress": null,
      "logs": [
        {
          "address": "0xA47757c742f4177dE4eEA192380127F8B62455F5",
          "topics": [
            "0x8c5be1e5ebec7d5bd14f71427d1e84f3dd0314c0f7b2291e5b200ac8c7c3b925",
            "0x0000000000000000000000005dcccaad516d68e01823aff6e75de8be73fb57bc",
            "0x000000000000000000000000d962b16f4ec712d705106674e944b04614f077be"
          ],
          "data": "0x0000000000000000000000000000000000000000000000001bc16d674ec80000",
          "blockHash": "0x7ae3c0f1ee47cfc48eb7a8763266d77a1c61a8b1ccdbc7a08bd0aff9fbe1d662",
          "blockNumber": "0x16e1c1b",
          "transactionHash": "0xd3d0a9b7d2e4c6ae8f3e3d7e68af88d1a2f3b6f66daa88a098d627813b44b76b",
          "transactionIndex": "0x1",
          "logIndex": "0x0",
          "removed": false
        }
      ],
      "status": "0x1",
      "logsBloom": "0x00000000000000000000000000000000000000000000000000000000000000000000000000000000000000000000000000000000000000000000000000200000000000000000000000000000000000000000000000000000000000001000000000000000000000000000000000000000000000000000000000000008000000000000000000000000000000000000004000000000000000000000000000000000020000000000000010000800000000000000000000000000000001000000000000000000000000000000000000000000000000000000800000000000000000001010000000000000000000000000000000000000000000000004000000000000",
      "type": "0x2",
      "effectiveGasPrice": "0x5f5e100"
    },
    {
      "transactionHash": "0x0c0ad745321902b09f838d14c19af5894db790ae5b94d87a618881b73c7300dd",
      "transactionIndex": "0x2",
      "blockHash": "0x3bd415a14651404a47f2408ba43cd6891608d96fbce431ce4f5c5128207580e9",
      "blockNumber": "0x16e1c36",
      "from": "0x5dCcCAAd516D68E01823AfF6E75dE8bE73fb57bC",
      "to": "0xFDA93151f6146f763D3A80Ddb4C5C7B268469465",
      "cumulativeGasUsed": "0x1b553",
      "gasUsed": "0x10611",
      "contractAddress": null,
      "logs": [
        {
          "address": "0xFDA93151f6146f763D3A80Ddb4C5C7B268469465",
          "topics": [
            "0x8c5be1e5ebec7d5bd14f71427d1e84f3dd0314c0f7b2291e5b200ac8c7c3b925",
            "0x0000000000000000000000005dcccaad516d68e01823aff6e75de8be73fb57bc",
            "0x000000000000000000000000d962b16f4ec712d705106674e944b04614f077be"
          ],
          "data": "0x0000000000000000000000000000000000000000000000001bc16d674ec80000",
          "blockHash": "0x3bd415a14651404a47f2408ba43cd6891608d96fbce431ce4f5c5128207580e9",
          "blockNumber": "0x16e1c36",
          "transactionHash": "0x0c0ad745321902b09f838d14c19af5894db790ae5b94d87a618881b73c7300dd",
          "transactionIndex": "0x2",
          "logIndex": "0x0",
          "removed": false
        }
      ],
      "status": "0x1",
      "logsBloom": "0x00000010000000000000000000000000000000000000000400000000000000000000000000000000000000000000000040000000000000000000000000200000000000000000000000000000000000000000000000000000000000001000000000000000000000000000000000000000000000000000000000000008000000000000000000000000000000000000000000000000000000000000000000000000020000000000000010000000000000000000000000000000000001000000000000000000000000000000000000000000000000000000800000000000000000001010000000000000000000000000000000000000000000000000000000000000",
      "type": "0x2",
      "effectiveGasPrice": "0x5f5e100"
    },
    {
      "transactionHash": "0x83e84ff764b6a917207f8e7b2a32b9f8686c058669503b41968437d77ae1784d",
      "transactionIndex": "0x1",
      "blockHash": "0x163e82952ad12db2edeafa7cbc057d8c108f1b7e2d30318e13c2aa781e5292f7",
      "blockNumber": "0x16e1c51",
      "from": "0x5dCcCAAd516D68E01823AfF6E75dE8bE73fb57bC",
      "to": "0xd962b16F4ec712D705106674E944B04614F077be",
      "cumulativeGasUsed": "0x56f71",
      "gasUsed": "0x56f71",
      "contractAddress": null,
      "logs": [
        {
          "address": "0xE5dF461803a59292c6c03978c17857479c40bc46",
          "topics": [
            "0x541c041c2cce48e614b3de043c9280f06b6164c0a1741649e2de3c3d375f7974",
            "0x648af213c0fe0b83d427791f9760c2e7a8691925c94cd9ae97269a4758839457",
            "0x000000000000000000000000d962b16f4ec712d705106674e944b04614f077be"
          ],
          "data": "0xfffffffffffffffffffffffffffffffffffffffffffffffffffffffffffffda800000000000000000000000000000000000000000000000000000000000002580000000000000000000000000000000000000000000000000de0b6b3a7640000",
          "blockHash": "0x163e82952ad12db2edeafa7cbc057d8c108f1b7e2d30318e13c2aa781e5292f7",
          "blockNumber": "0x16e1c51",
          "transactionHash": "0x83e84ff764b6a917207f8e7b2a32b9f8686c058669503b41968437d77ae1784d",
          "transactionIndex": "0x1",
          "logIndex": "0x0",
          "removed": false
        },
        {
          "address": "0xA47757c742f4177dE4eEA192380127F8B62455F5",
          "topics": [
            "0xddf252ad1be2c89b69c2b068fc378daa952ba7f163c4a11628f55a4df523b3ef",
            "0x0000000000000000000000005dcccaad516d68e01823aff6e75de8be73fb57bc",
            "0x000000000000000000000000e5df461803a59292c6c03978c17857479c40bc46"
          ],
          "data": "0x0000000000000000000000000000000000000000000000000068fe4e8b7e8592",
          "blockHash": "0x163e82952ad12db2edeafa7cbc057d8c108f1b7e2d30318e13c2aa781e5292f7",
          "blockNumber": "0x16e1c51",
          "transactionHash": "0x83e84ff764b6a917207f8e7b2a32b9f8686c058669503b41968437d77ae1784d",
          "transactionIndex": "0x1",
          "logIndex": "0x1",
          "removed": false
        },
        {
          "address": "0xA47757c742f4177dE4eEA192380127F8B62455F5",
          "topics": [
            "0x8c5be1e5ebec7d5bd14f71427d1e84f3dd0314c0f7b2291e5b200ac8c7c3b925",
            "0x0000000000000000000000005dcccaad516d68e01823aff6e75de8be73fb57bc",
            "0x000000000000000000000000d962b16f4ec712d705106674e944b04614f077be"
          ],
          "data": "0x0000000000000000000000000000000000000000000000001b586f18c3497a6e",
          "blockHash": "0x163e82952ad12db2edeafa7cbc057d8c108f1b7e2d30318e13c2aa781e5292f7",
          "blockNumber": "0x16e1c51",
          "transactionHash": "0x83e84ff764b6a917207f8e7b2a32b9f8686c058669503b41968437d77ae1784d",
          "transactionIndex": "0x1",
          "logIndex": "0x2",
          "removed": false
        },
        {
          "address": "0xFDA93151f6146f763D3A80Ddb4C5C7B268469465",
          "topics": [
            "0xddf252ad1be2c89b69c2b068fc378daa952ba7f163c4a11628f55a4df523b3ef",
            "0x0000000000000000000000005dcccaad516d68e01823aff6e75de8be73fb57bc",
            "0x000000000000000000000000e5df461803a59292c6c03978c17857479c40bc46"
          ],
          "data": "0x0000000000000000000000000000000000000000000000000068fe4e8b7e8592",
          "blockHash": "0x163e82952ad12db2edeafa7cbc057d8c108f1b7e2d30318e13c2aa781e5292f7",
          "blockNumber": "0x16e1c51",
          "transactionHash": "0x83e84ff764b6a917207f8e7b2a32b9f8686c058669503b41968437d77ae1784d",
          "transactionIndex": "0x1",
          "logIndex": "0x3",
          "removed": false
        },
        {
          "address": "0xFDA93151f6146f763D3A80Ddb4C5C7B268469465",
          "topics": [
            "0x8c5be1e5ebec7d5bd14f71427d1e84f3dd0314c0f7b2291e5b200ac8c7c3b925",
            "0x0000000000000000000000005dcccaad516d68e01823aff6e75de8be73fb57bc",
            "0x000000000000000000000000d962b16f4ec712d705106674e944b04614f077be"
          ],
          "data": "0x0000000000000000000000000000000000000000000000001b586f18c3497a6e",
          "blockHash": "0x163e82952ad12db2edeafa7cbc057d8c108f1b7e2d30318e13c2aa781e5292f7",
          "blockNumber": "0x16e1c51",
          "transactionHash": "0x83e84ff764b6a917207f8e7b2a32b9f8686c058669503b41968437d77ae1784d",
          "transactionIndex": "0x1",
          "logIndex": "0x4",
          "removed": false
        }
      ],
      "status": "0x1",
      "logsBloom": "0x00010010100000000000400000000100000000000000000402000000000000000000000000000000000000000000000040000000000000000000800000200000000000000000000000000008000000000000000000000000000000001000000010000000000000000000000000000000000000000000000000000018000000000000000000000000000000000000004008000000000000000000000040000000220000000000000010000800000000000000000000000000000001000001000000000002000000000000000000000000000000000000800000000000000000001010000000000000040000000000000000000000000000000004000000000000",
      "type": "0x2",
      "effectiveGasPrice": "0x5f5e100"
    }
  ],
  "libraries": [],
  "pending": [],
  "returns": {},
  "timestamp": 1710650730,
  "chain": 421614,
  "commit": "9843b1b"
}