{
  "transactions": [
    {
      "hash": "0x68dd8e339b667f4ab325a665dca334e72ad49f1c1ef9554d9cafc286cdb8872e",
      "transactionType": "CALL",
      "contractName": null,
      "contractAddress": "0xA47757c742f4177dE4eEA192380127F8B62455F5",
      "function": "approve(address,uint256)",
      "arguments": [
        "0xd962b16F4ec712D705106674E944B04614F077be",
        "2000000000000000000"
      ],
      "transaction": {
        "type": "0x02",
        "from": "0x5dcccaad516d68e01823aff6e75de8be73fb57bc",
        "to": "0xa47757c742f4177de4eea192380127f8b62455f5",
        "gas": "0xeada",
        "value": "0x0",
        "data": "0x095ea7b3000000000000000000000000d962b16f4ec712d705106674e944b04614f077be0000000000000000000000000000000000000000000000001bc16d674ec80000",
        "nonce": "0x7",
        "accessList": []
      },
      "additionalContracts": [],
      "isFixedGasLimit": false
    },
    {
      "hash": "0xd5552096f581241be1e95fa46db93928ce10666fca73d1d5c9e5bf306ff927af",
      "transactionType": "CALL",
      "contractName": null,
      "contractAddress": "0xFDA93151f6146f763D3A80Ddb4C5C7B268469465",
      "function": "approve(address,uint256)",
      "arguments": [
        "0xd962b16F4ec712D705106674E944B04614F077be",
        "2000000000000000000"
      ],
      "transaction": {
        "type": "0x02",
        "from": "0x5dcccaad516d68e01823aff6e75de8be73fb57bc",
        "to": "0xfda93151f6146f763d3a80ddb4c5c7b268469465",
        "gas": "0xeada",
        "value": "0x0",
        "data": "0x095ea7b3000000000000000000000000d962b16f4ec712d705106674e944b04614f077be0000000000000000000000000000000000000000000000001bc16d674ec80000",
        "nonce": "0x8",
        "accessList": []
      },
      "additionalContracts": [],
      "isFixedGasLimit": false
    },
    {
      "hash": "0x7163788c4ff1394cc758750756a9300dd4637ad4381d80b40418926a08817a0b",
      "transactionType": "CALL",
      "contractName": null,
      "contractAddress": "0xd962b16F4ec712D705106674E944B04614F077be",
      "function": "modifyLiquidity((address,address,uint24,int24,address),(int24,int24,int256),bytes)",
      "arguments": [
        "(0xA47757c742f4177dE4eEA192380127F8B62455F5, 0xFDA93151f6146f763D3A80Ddb4C5C7B268469465, 4000, 10, 0x0301cF874CDB90ea311354eC6518aeF36F00C5FE)",
        "(-600, 600, 1000000000000000000)",
        "0x"
      ],
      "transaction": {
        "type": "0x02",
        "from": "0x5dcccaad516d68e01823aff6e75de8be73fb57bc",
        "to": "0xd962b16f4ec712d705106674e944b04614f077be",
        "gas": "0x7762a",
        "value": "0x0",
        "data": "0xbec999dd000000000000000000000000a47757c742f4177de4eea192380127f8b62455f5000000000000000000000000fda93151f6146f763d3a80ddb4c5c7b2684694650000000000000000000000000000000000000000000000000000000000000fa0000000000000000000000000000000000000000000000000000000000000000a0000000000000000000000000301cf874cdb90ea311354ec6518aef36f00c5fefffffffffffffffffffffffffffffffffffffffffffffffffffffffffffffda800000000000000000000000000000000000000000000000000000000000002580000000000000000000000000000000000000000000000000de0b6b3a764000000000000000000000000000000000000000000000000000000000000000001200000000000000000000000000000000000000000000000000000000000000000",
        "nonce": "0x9",
        "accessList": []
      },
      "additionalContracts": [],
      "isFixedGasLimit": false
    }
  ],
  "receipts": [
    {
      "transactionHash": "0x68dd8e339b667f4ab325a665dca334e72ad49f1c1ef9554d9cafc286cdb8872e",
      "transactionIndex": "0x1",
      "blockHash": "0x99655fa4b95a8cb29cc8fc31328d470a7263cc159948c105fff360f5755a4170",
      "blockNumber": "0x16d2809",
      "from": "0x5dCcCAAd516D68E01823AfF6E75dE8bE73fb57bC",
      "to": "0xA47757c742f4177dE4eEA192380127F8B62455F5",
      "cumulativeGasUsed": "0xb4a8",
      "gasUsed": "0xb4a8",
      "contractAddress": null,
      "logs": [
        {
          "address": "0xA47757c742f4177dE4eEA192380127F8B62455F5",
          "topics": [
            "0x8c5be1e5ebec7d5bd14f71427d1e84f3dd0314c0f7b2291e5b200ac8c7c3b925",
            "0x0000000000000000000000005dcccaad516d68e01823aff6e75de8be73fb57bc",
            "0x000000000000000000000000d962b16f4ec712d705106674e944b04614f077be"
          ],
          "data": "0x0000000000000000000000000000000000000000000000001bc16d674ec80000",
          "blockHash": "0x99655fa4b95a8cb29cc8fc31328d470a7263cc159948c105fff360f5755a4170",
          "blockNumber": "0x16d2809",
          "transactionHash": "0x68dd8e339b667f4ab325a665dca334e72ad49f1c1ef9554d9cafc286cdb8872e",
          "transactionIndex": "0x1",
          "logIndex": "0x0",
          "removed": false
        }
      ],
      "status": "0x1",
      "logsBloom": "0x00000000000000000000000000000000000000000000000000000000000000000000000000000000000000000000000000000000000000000000000000200000000000000000000000000000000000000000000000000000000000001000000000000000000000000000000000000000000000000000000000000008000000000000000000000000000000000000004000000000000000000000000000000000020000000000000010000800000000000000000000000000000001000000000000000000000000000000000000000000000000000000800000000000000000001010000000000000000000000000000000000000000000000004000000000000",
      "type": "0x2",
      "effectiveGasPrice": "0x5f5e100"
    },
    {
      "transactionHash": "0xd5552096f581241be1e95fa46db93928ce10666fca73d1d5c9e5bf306ff927af",
      "transactionIndex": "0x1",
      "blockHash": "0x7685d8b33f303f93b3b7a58084799202f750f86010bd3c960e62c4d2f31a0df4",
      "blockNumber": "0x16d2825",
      "from": "0x5dCcCAAd516D68E01823AfF6E75dE8bE73fb57bC",
      "to": "0xFDA93151f6146f763D3A80Ddb4C5C7B268469465",
      "cumulativeGasUsed": "0xb4a8",
      "gasUsed": "0xb4a8",
      "contractAddress": null,
      "logs": [
        {
          "address": "0xFDA93151f6146f763D3A80Ddb4C5C7B268469465",
          "topics": [
            "0x8c5be1e5ebec7d5bd14f71427d1e84f3dd0314c0f7b2291e5b200ac8c7c3b925",
            "0x0000000000000000000000005dcccaad516d68e01823aff6e75de8be73fb57bc",
            "0x000000000000000000000000d962b16f4ec712d705106674e944b04614f077be"
          ],
          "data": "0x0000000000000000000000000000000000000000000000001bc16d674ec80000",
          "blockHash": "0x7685d8b33f303f93b3b7a58084799202f750f86010bd3c960e62c4d2f31a0df4",
          "blockNumber": "0x16d2825",
          "transactionHash": "0xd5552096f581241be1e95fa46db93928ce10666fca73d1d5c9e5bf306ff927af",
          "transactionIndex": "0x1",
          "logIndex": "0x0",
          "removed": false
        }
      ],
      "status": "0x1",
      "logsBloom": "0x00000010000000000000000000000000000000000000000400000000000000000000000000000000000000000000000040000000000000000000000000200000000000000000000000000000000000000000000000000000000000001000000000000000000000000000000000000000000000000000000000000008000000000000000000000000000000000000000000000000000000000000000000000000020000000000000010000000000000000000000000000000000001000000000000000000000000000000000000000000000000000000800000000000000000001010000000000000000000000000000000000000000000000000000000000000",
      "type": "0x2",
      "effectiveGasPrice": "0x5f5e100"
    },
    {
      "transactionHash": "0x7163788c4ff1394cc758750756a9300dd4637ad4381d80b40418926a08817a0b",
      "transactionIndex": "0x2",
      "blockHash": "0x3620ddd79439f349ec486326b77a40bbeb4fa95cc6f731c2724b8ced845a9d98",
      "blockNumber": "0x16d2843",
      "from": "0x5dCcCAAd516D68E01823AfF6E75dE8bE73fb57bC",
      "to": "0xd962b16F4ec712D705106674E944B04614F077be",
      "cumulativeGasUsed": "0xb1d60",
      "gasUsed": "0x566ee",
      "contractAddress": null,
      "logs": [
        {
          "address": "0xE5dF461803a59292c6c03978c17857479c40bc46",
          "topics": [
            "0x541c041c2cce48e614b3de043c9280f06b6164c0a1741649e2de3c3d375f7974",
            "0xac8cc9b4632fdb9b6bf31d331780efbf4418183d1ef7d3f48c21cbeb0cb86871",
            "0x000000000000000000000000d962b16f4ec712d705106674e944b04614f077be"
          ],
          "data": "0xfffffffffffffffffffffffffffffffffffffffffffffffffffffffffffffda800000000000000000000000000000000000000000000000000000000000002580000000000000000000000000000000000000000000000000de0b6b3a7640000",
          "blockHash": "0x3620ddd79439f349ec486326b77a40bbeb4fa95cc6f731c2724b8ced845a9d98",
          "blockNumber": "0x16d2843",
          "transactionHash": "0x7163788c4ff1394cc758750756a9300dd4637ad4381d80b40418926a08817a0b",
          "transactionIndex": "0x2",
          "logIndex": "0x0",
          "removed": false
        },
        {
          "address": "0xA47757c742f4177dE4eEA192380127F8B62455F5",
          "topics": [
            "0xddf252ad1be2c89b69c2b068fc378daa952ba7f163c4a11628f55a4df523b3ef",
            "0x0000000000000000000000005dcccaad516d68e01823aff6e75de8be73fb57bc",
            "0x000000000000000000000000e5df461803a59292c6c03978c17857479c40bc46"
          ],
          "data": "0x0000000000000000000000000000000000000000000000000068fe4e8b7e8592",
          "blockHash": "0x3620ddd79439f349ec486326b77a40bbeb4fa95cc6f731c2724b8ced845a9d98",
          "blockNumber": "0x16d2843",
          "transactionHash": "0x7163788c4ff1394cc758750756a9300dd4637ad4381d80b40418926a08817a0b",
          "transactionIndex": "0x2",
          "logIndex": "0x1",
          "removed": false
        },
        {
          "address": "0xA47757c742f4177dE4eEA192380127F8B62455F5",
          "topics": [
            "0x8c5be1e5ebec7d5bd14f71427d1e84f3dd0314c0f7b2291e5b200ac8c7c3b925",
            "0x0000000000000000000000005dcccaad516d68e01823aff6e75de8be73fb57bc",
            "0x000000000000000000000000d962b16f4ec712d705106674e944b04614f077be"
          ],
          "data": "0x0000000000000000000000000000000000000000000000001b586f18c3497a6e",
          "blockHash": "0x3620ddd79439f349ec486326b77a40bbeb4fa95cc6f731c2724b8ced845a9d98",
          "blockNumber": "0x16d2843",
          "transactionHash": "0x7163788c4ff1394cc758750756a9300dd4637ad4381d80b40418926a08817a0b",
          "transactionIndex": "0x2",
          "logIndex": "0x2",
          "removed": false
        },
        {
          "address": "0xFDA93151f6146f763D3A80Ddb4C5C7B268469465",
          "topics": [
            "0xddf252ad1be2c89b69c2b068fc378daa952ba7f163c4a11628f55a4df523b3ef",
            "0x0000000000000000000000005dcccaad516d68e01823aff6e75de8be73fb57bc",
            "0x000000000000000000000000e5df461803a59292c6c03978c17857479c40bc46"
          ],
          "data": "0x0000000000000000000000000000000000000000000000000068fe4e8b7e8592",
          "blockHash": "0x3620ddd79439f349ec486326b77a40bbeb4fa95cc6f731c2724b8ced845a9d98",
          "blockNumber": "0x16d2843",
          "transactionHash": "0x7163788c4ff1394cc758750756a9300dd4637ad4381d80b40418926a08817a0b",
          "transactionIndex": "0x2",
          "logIndex": "0x3",
          "removed": false
        },
        {
          "address": "0xFDA93151f6146f763D3A80Ddb4C5C7B268469465",
          "topics": [
            "0x8c5be1e5ebec7d5bd14f71427d1e84f3dd0314c0f7b2291e5b200ac8c7c3b925",
            "0x0000000000000000000000005dcccaad516d68e01823aff6e75de8be73fb57bc",
            "0x000000000000000000000000d962b16f4ec712d705106674e944b04614f077be"
          ],
          "data": "0x0000000000000000000000000000000000000000000000001b586f18c3497a6e",
          "blockHash": "0x3620ddd79439f349ec486326b77a40bbeb4fa95cc6f731c2724b8ced845a9d98",
          "blockNumber": "0x16d2843",
          "transactionHash": "0x7163788c4ff1394cc758750756a9300dd4637ad4381d80b40418926a08817a0b",
          "transactionIndex": "0x2",
          "logIndex": "0x4",
          "removed": false
        }
      ],
      "status": "0x1",
      "logsBloom": "0x00000010100000000000400000000100000000000000000402000000000000000000000000000400000000000000000040000000000000000000800000200000000000000000000000000008000000000000000000000000000000001000000010000000000000000000000000000000000000000000000000000018000010000000000000000000000000000000004000000000000000000000000040000000020000000000000010000800000000000000000000000000000001000001000000000002000000000000000000000000000000000000800000000000000000001010000000000004040000000000000000000000000000000004000000000000",
      "type": "0x2",
      "effectiveGasPrice": "0x5f5e100"
    }
  ],
  "libraries": [],
  "pending": [],
  "returns": {},
  "timestamp": 1710633915,
  "chain": 421614,
  "commit": "ba1a325"
}