{
  "transactions": [
    {
      "hash": "0x4d6bf30a47dc8c571c58724f59595a5152adbbe1ad8c47b2058dd4ad336a8361",
      "transactionType": "CALL",
      "contractName": null,
      "contractAddress": "0xA47757c742f4177dE4eEA192380127F8B62455F5",
      "function": "approve(address,uint256)",
      "arguments": [
        "0xd962b16F4ec712D705106674E944B04614F077be",
        "2000000000000000000"
      ],
      "transaction": {
        "type": "0x02",
        "from": "0x5dcccaad516d68e01823aff6e75de8be73fb57bc",
        "to": "0xa47757c742f4177de4eea192380127f8b62455f5",
        "gas": "0x9404",
        "value": "0x0",
        "data": "0x095ea7b3000000000000000000000000d962b16f4ec712d705106674e944b04614f077be0000000000000000000000000000000000000000000000001bc16d674ec80000",
        "nonce": "0x31",
        "accessList": []
      },
      "additionalContracts": [],
      "isFixedGasLimit": false
    },
    {
      "hash": "0xd74acb314c27f4d167a0fcd57bf913ecddc19c6ae974afeec3ac45c6a95a1148",
      "transactionType": "CALL",
      "contractName": null,
      "contractAddress": "0xFDA93151f6146f763D3A80Ddb4C5C7B268469465",
      "function": "approve(address,uint256)",
      "arguments": [
        "0xd962b16F4ec712D705106674E944B04614F077be",
        "2000000000000000000"
      ],
      "transaction": {
        "type": "0x02",
        "from": "0x5dcccaad516d68e01823aff6e75de8be73fb57bc",
        "to": "0xfda93151f6146f763d3a80ddb4c5c7b268469465",
        "gas": "0x9404",
        "value": "0x0",
        "data": "0x095ea7b3000000000000000000000000d962b16f4ec712d705106674e944b04614f077be0000000000000000000000000000000000000000000000001bc16d674ec80000",
        "nonce": "0x32",
        "accessList": []
      },
      "additionalContracts": [],
      "isFixedGasLimit": false
    },
    {
      "hash": "0xd9e7f51e858edac693f0b4f51be80f36c5bb950cf80302a4b55695b6a0f81bd9",
      "transactionType": "CALL",
      "contractName": null,
      "contractAddress": "0xd962b16F4ec712D705106674E944B04614F077be",
      "function": "modifyLiquidity((address,address,uint24,int24,address),(int24,int24,int256),bytes)",
      "arguments": [
        "(0xA47757c742f4177dE4eEA192380127F8B62455F5, 0xFDA93151f6146f763D3A80Ddb4C5C7B268469465, 4000, 10, 0x030C65FFc979C367e58DE454bBB5841bF7aF8573)",
        "(-600, 600, 1000000000000000000)",
        "0x"
      ],
      "transaction": {
        "type": "0x02",
        "from": "0x5dcccaad516d68e01823aff6e75de8be73fb57bc",
        "to": "0xd962b16f4ec712d705106674e944b04614f077be",
        "gas": "0x6a123",
        "value": "0x0",
        "data": "0xbec999dd000000000000000000000000a47757c742f4177de4eea192380127f8b62455f5000000000000000000000000fda93151f6146f763d3a80ddb4c5c7b2684694650000000000000000000000000000000000000000000000000000000000000fa0000000000000000000000000000000000000000000000000000000000000000a000000000000000000000000030c65ffc979c367e58de454bbb5841bf7af8573fffffffffffffffffffffffffffffffffffffffffffffffffffffffffffffda800000000000000000000000000000000000000000000000000000000000002580000000000000000000000000000000000000000000000000de0b6b3a764000000000000000000000000000000000000000000000000000000000000000001200000000000000000000000000000000000000000000000000000000000000000",
        "nonce": "0x33",
        "accessList": []
      },
      "additionalContracts": [],
      "isFixedGasLimit": false
    }
  ],
  "receipts": [
    {
      "transactionHash": "0x4d6bf30a47dc8c571c58724f59595a5152adbbe1ad8c47b2058dd4ad336a8361",
      "transactionIndex": "0x1",
      "blockHash": "0x93ff5ddc7946b0df0ffb33215c55c9df09f8586b2cacfb7ab48ac699b39d4c6a",
      "blockNumber": "0x1a87eea",
      "from": "0x5dCcCAAd516D68E01823AfF6E75dE8bE73fb57bC",
      "to": "0xA47757c742f4177dE4eEA192380127F8B62455F5",
      "cumulativeGasUsed": "0x71dc",
      "gasUsed": "0x71dc",
      "contractAddress": null,
      "logs": [
        {
          "address": "0xA47757c742f4177dE4eEA192380127F8B62455F5",
          "topics": [
            "0x8c5be1e5ebec7d5bd14f71427d1e84f3dd0314c0f7b2291e5b200ac8c7c3b925",
            "0x0000000000000000000000005dcccaad516d68e01823aff6e75de8be73fb57bc",
            "0x000000000000000000000000d962b16f4ec712d705106674e944b04614f077be"
          ],
          "data": "0x0000000000000000000000000000000000000000000000001bc16d674ec80000",
          "blockHash": "0x93ff5ddc7946b0df0ffb33215c55c9df09f8586b2cacfb7ab48ac699b39d4c6a",
          "blockNumber": "0x1a87eea",
          "transactionHash": "0x4d6bf30a47dc8c571c58724f59595a5152adbbe1ad8c47b2058dd4ad336a8361",
          "transactionIndex": "0x1",
          "logIndex": "0x0",
          "removed": false
        }
      ],
      "status": "0x1",
      "logsBloom": "0x00000000000000000000000000000000000000000000000000000000000000000000000000000000000000000000000000000000000000000000000000200000000000000000000000000000000000000000000000000000000000001000000000000000000000000000000000000000000000000000000000000008000000000000000000000000000000000000004000000000000000000000000000000000020000000000000010000800000000000000000000000000000001000000000000000000000000000000000000000000000000000000800000000000000000001010000000000000000000000000000000000000000000000004000000000000",
      "type": "0x2",
      "effectiveGasPrice": "0x5f5e100"
    },
    {
      "transactionHash": "0xd74acb314c27f4d167a0fcd57bf913ecddc19c6ae974afeec3ac45c6a95a1148",
      "transactionIndex": "0x1",
      "blockHash": "0x8271b7e996d7d835e49b2caf59ec7a085c2aa7402c65a04b02e0facfe922d490",
      "blockNumber": "0x1a87f07",
      "from": "0x5dCcCAAd516D68E01823AfF6E75dE8bE73fb57bC",
      "to": "0xFDA93151f6146f763D3A80Ddb4C5C7B268469465",
      "cumulativeGasUsed": "0x71dc",
      "gasUsed": "0x71dc",
      "contractAddress": null,
      "logs": [
        {
          "address": "0xFDA93151f6146f763D3A80Ddb4C5C7B268469465",
          "topics": [
            "0x8c5be1e5ebec7d5bd14f71427d1e84f3dd0314c0f7b2291e5b200ac8c7c3b925",
            "0x0000000000000000000000005dcccaad516d68e01823aff6e75de8be73fb57bc",
            "0x000000000000000000000000d962b16f4ec712d705106674e944b04614f077be"
          ],
          "data": "0x0000000000000000000000000000000000000000000000001bc16d674ec80000",
          "blockHash": "0x8271b7e996d7d835e49b2caf59ec7a085c2aa7402c65a04b02e0facfe922d490",
          "blockNumber": "0x1a87f07",
          "transactionHash": "0xd74acb314c27f4d167a0fcd57bf913ecddc19c6ae974afeec3ac45c6a95a1148",
          "transactionIndex": "0x1",
          "logIndex": "0x0",
          "removed": false
        }
      ],
      "status": "0x1",
      "logsBloom": "0x00000010000000000000000000000000000000000000000400000000000000000000000000000000000000000000000040000000000000000000000000200000000000000000000000000000000000000000000000000000000000001000000000000000000000000000000000000000000000000000000000000008000000000000000000000000000000000000000000000000000000000000000000000000020000000000000010000000000000000000000000000000000001000000000000000000000000000000000000000000000000000000800000000000000000001010000000000000000000000000000000000000000000000000000000000000",
      "type": "0x2",
      "effectiveGasPrice": "0x5f5e100"
    },
    {
      "transactionHash": "0xd9e7f51e858edac693f0b4f51be80f36c5bb950cf80302a4b55695b6a0f81bd9",
      "transactionIndex": "0x5",
      "blockHash": "0x92a96000b0724d987ee55748624bfadce9226c1165f27a2e0d9896da95fd7261",
      "blockNumber": "0x1a87f24",
      "from": "0x5dCcCAAd516D68E01823AfF6E75dE8bE73fb57bC",
      "to": "0xd962b16F4ec712D705106674E944B04614F077be",
      "cumulativeGasUsed": "0x4329e7",
      "gasUsed": "0x45bca",
      "contractAddress": null,
      "logs": [
        {
          "address": "0xE5dF461803a59292c6c03978c17857479c40bc46",
          "topics": [
            "0x541c041c2cce48e614b3de043c9280f06b6164c0a1741649e2de3c3d375f7974",
            "0x3d28010ea8d317e6253d9657546ec5a268aabe64f811da773363a0cfdce4cdfd",
            "0x000000000000000000000000d962b16f4ec712d705106674e944b04614f077be"
          ],
          "data": "0xfffffffffffffffffffffffffffffffffffffffffffffffffffffffffffffda800000000000000000000000000000000000000000000000000000000000002580000000000000000000000000000000000000000000000000de0b6b3a7640000",
          "blockHash": "0x92a96000b0724d987ee55748624bfadce9226c1165f27a2e0d9896da95fd7261",
          "blockNumber": "0x1a87f24",
          "transactionHash": "0xd9e7f51e858edac693f0b4f51be80f36c5bb950cf80302a4b55695b6a0f81bd9",
          "transactionIndex": "0x5",
          "logIndex": "0x1e",
          "removed": false
        },
        {
          "address": "0xA47757c742f4177dE4eEA192380127F8B62455F5",
          "topics": [
            "0xddf252ad1be2c89b69c2b068fc378daa952ba7f163c4a11628f55a4df523b3ef",
            "0x0000000000000000000000005dcccaad516d68e01823aff6e75de8be73fb57bc",
            "0x000000000000000000000000e5df461803a59292c6c03978c17857479c40bc46"
          ],
          "data": "0x0000000000000000000000000000000000000000000000000068fe4e8b7e8592",
          "blockHash": "0x92a96000b0724d987ee55748624bfadce9226c1165f27a2e0d9896da95fd7261",
          "blockNumber": "0x1a87f24",
          "transactionHash": "0xd9e7f51e858edac693f0b4f51be80f36c5bb950cf80302a4b55695b6a0f81bd9",
          "transactionIndex": "0x5",
          "logIndex": "0x1f",
          "removed": false
        },
        {
          "address": "0xA47757c742f4177dE4eEA192380127F8B62455F5",
          "topics": [
            "0x8c5be1e5ebec7d5bd14f71427d1e84f3dd0314c0f7b2291e5b200ac8c7c3b925",
            "0x0000000000000000000000005dcccaad516d68e01823aff6e75de8be73fb57bc",
            "0x000000000000000000000000d962b16f4ec712d705106674e944b04614f077be"
          ],
          "data": "0x0000000000000000000000000000000000000000000000001b586f18c3497a6e",
          "blockHash": "0x92a96000b0724d987ee55748624bfadce9226c1165f27a2e0d9896da95fd7261",
          "blockNumber": "0x1a87f24",
          "transactionHash": "0xd9e7f51e858edac693f0b4f51be80f36c5bb950cf80302a4b55695b6a0f81bd9",
          "transactionIndex": "0x5",
          "logIndex": "0x20",
          "removed": false
        },
        {
          "address": "0xFDA93151f6146f763D3A80Ddb4C5C7B268469465",
          "topics": [
            "0xddf252ad1be2c89b69c2b068fc378daa952ba7f163c4a11628f55a4df523b3ef",
            "0x0000000000000000000000005dcccaad516d68e01823aff6e75de8be73fb57bc",
            "0x000000000000000000000000e5df461803a59292c6c03978c17857479c40bc46"
          ],
          "data": "0x0000000000000000000000000000000000000000000000000068fe4e8b7e8592",
          "blockHash": "0x92a96000b0724d987ee55748624bfadce9226c1165f27a2e0d9896da95fd7261",
          "blockNumber": "0x1a87f24",
          "transactionHash": "0xd9e7f51e858edac693f0b4f51be80f36c5bb950cf80302a4b55695b6a0f81bd9",
          "transactionIndex": "0x5",
          "logIndex": "0x21",
          "removed": false
        },
        {
          "address": "0xFDA93151f6146f763D3A80Ddb4C5C7B268469465",
          "topics": [
            "0x8c5be1e5ebec7d5bd14f71427d1e84f3dd0314c0f7b2291e5b200ac8c7c3b925",
            "0x0000000000000000000000005dcccaad516d68e01823aff6e75de8be73fb57bc",
            "0x000000000000000000000000d962b16f4ec712d705106674e944b04614f077be"
          ],
          "data": "0x0000000000000000000000000000000000000000000000001b586f18c3497a6e",
          "blockHash": "0x92a96000b0724d987ee55748624bfadce9226c1165f27a2e0d9896da95fd7261",
          "blockNumber": "0x1a87f24",
          "transactionHash": "0xd9e7f51e858edac693f0b4f51be80f36c5bb950cf80302a4b55695b6a0f81bd9",
          "transactionIndex": "0x5",
          "logIndex": "0x22",
          "removed": false
        }
      ],
      "status": "0x1",
      "logsBloom": "0x00000010100000000000400000000100000000000000000402000000000000000000000000000000000000000000000040000000000000000000800000200000000000000000000000000008000000000000000000000000000000001000000010000000000000000000000000000000000000000000000000000018020000400000000000000000000000000000004000000000000000000000000040000000020000000000000010000800000000000000000000000000000001000001000000000002000000000000000000000000000000000000800000080000000000001010000000000000040000000000000000000000000000000004000000000000",
      "type": "0x2",
      "effectiveGasPrice": "0x5f5e100"
    }
  ],
  "libraries": [],
  "pending": [],
  "returns": {},
  "timestamp": 1711626631,
  "chain": 421614,
  "commit": "dbab029"
}