{
  "transactions": [
    {
      "hash": "0xa98a25119e8833e8d6f8a6f9a301f0c4462d5fb20cdaff5d20af6e63c87dac80",
      "transactionType": "CALL",
      "contractName": null,
      "contractAddress": "0xA47757c742f4177dE4eEA192380127F8B62455F5",
      "function": "approve(address,uint256)",
      "arguments": [
        "0x5bA874E13D2Cf3161F89D1B1d1732D14226dBF16",
        "115792089237316195423570985008687907853269984665640564039457584007913129639935"
      ],
      "transaction": {
        "type": "0x02",
        "from": "0x5dcccaad516d68e01823aff6e75de8be73fb57bc",
        "to": "0xa47757c742f4177de4eea192380127f8b62455f5",
        "gas": "0xec70",
        "value": "0x0",
        "data": "0x095ea7b30000000000000000000000005ba874e13d2cf3161f89d1b1d1732d14226dbf16ffffffffffffffffffffffffffffffffffffffffffffffffffffffffffffffff",
        "nonce": "0xa",
        "accessList": []
      },
      "additionalContracts": [],
      "isFixedGasLimit": false
    },
    {
      "hash": "0xc960e57b0cd9ade04cb2fee9ccbbf642daa4e96c8af4ef2197b12765170c847f",
      "transactionType": "CALL",
      "contractName": null,
      "contractAddress": "0xFDA93151f6146f763D3A80Ddb4C5C7B268469465",
      "function": "approve(address,uint256)",
      "arguments": [
        "0x5bA874E13D2Cf3161F89D1B1d1732D14226dBF16",
        "115792089237316195423570985008687907853269984665640564039457584007913129639935"
      ],
      "transaction": {
        "type": "0x02",
        "from": "0x5dcccaad516d68e01823aff6e75de8be73fb57bc",
        "to": "0xfda93151f6146f763d3a80ddb4c5c7b268469465",
        "gas": "0xec70",
        "value": "0x0",
        "data": "0x095ea7b30000000000000000000000005ba874e13d2cf3161f89d1b1d1732d14226dbf16ffffffffffffffffffffffffffffffffffffffffffffffffffffffffffffffff",
        "nonce": "0xb",
        "accessList": []
      },
      "additionalContracts": [],
      "isFixedGasLimit": false
    },
    {
      "hash": "0x100065095bdbf65596ca75eaa28e589846fee0b9efc8a233ba21269584c69a89",
      "transactionType": "CALL",
      "contractName": null,
      "contractAddress": "0x5bA874E13D2Cf3161F89D1B1d1732D14226dBF16",
      "function": "swap((address,address,uint24,int24,address),(bool,int256,uint160),(bool,bool,bool),bytes)",
      "arguments": [
        "(0xA47757c742f4177dE4eEA192380127F8B62455F5, 0xFDA93151f6146f763D3A80Ddb4C5C7B268469465, 4000, 10, 0x0301cF874CDB90ea311354eC6518aeF36F00C5FE)",
        "(true, 3000000000000000000, 4295128740)",
        "(true, true, false)",
        "0x"
      ],
      "transaction": {
        "type": "0x02",
        "from": "0x5dcccaad516d68e01823aff6e75de8be73fb57bc",
        "to": "0x5ba874e13d2cf3161f89d1b1d1732d14226dbf16",
        "gas": "0x360e82",
        "value": "0x0",
        "data": "0x6646135b000000000000000000000000a47757c742f4177de4eea192380127f8b62455f5000000000000000000000000fda93151f6146f763d3a80ddb4c5c7b2684694650000000000000000000000000000000000000000000000000000000000000fa0000000000000000000000000000000000000000000000000000000000000000a0000000000000000000000000301cf874cdb90ea311354ec6518aef36f00c5fe000000000000000000000000000000000000000000000000000000000000000100000000000000000000000000000000000000000000000029a2241af62c000000000000000000000000000000000000000000000000000000000001000276a400000000000000000000000000000000000000000000000000000000000000010000000000000000000000000000000000000000000000000000000000000001000000000000000000000000000000000000000000000000000000000000000000000000000000000000000000000000000000000000000000000000000001800000000000000000000000000000000000000000000000000000000000000000",
        "nonce": "0xc",
        "accessList": []
      },
      "additionalContracts": [],
      "isFixedGasLimit": false
    }
  ],
  "receipts": [
    {
      "transactionHash": "0xa98a25119e8833e8d6f8a6f9a301f0c4462d5fb20cdaff5d20af6e63c87dac80",
      "transactionIndex": "0x1",
      "blockHash": "0xcd8b94eb2c287081238d7c8d9d9f1d0868f6562ef553e91f42969ffd24bb34b4",
      "blockNumber": "0x16d2d07",
      "from": "0x5dCcCAAd516D68E01823AfF6E75dE8bE73fb57bC",
      "to": "0xA47757c742f4177dE4eEA192380127F8B62455F5",
      "cumulativeGasUsed": "0xb5e0",
      "gasUsed": "0xb5e0",
      "contractAddress": null,
      "logs": [
        {
          "address": "0xA47757c742f4177dE4eEA192380127F8B62455F5",
          "topics": [
            "0x8c5be1e5ebec7d5bd14f71427d1e84f3dd0314c0f7b2291e5b200ac8c7c3b925",
            "0x0000000000000000000000005dcccaad516d68e01823aff6e75de8be73fb57bc",
            "0x0000000000000000000000005ba874e13d2cf3161f89d1b1d1732d14226dbf16"
          ],
          "data": "0xffffffffffffffffffffffffffffffffffffffffffffffffffffffffffffffff",
          "blockHash": "0xcd8b94eb2c287081238d7c8d9d9f1d0868f6562ef553e91f42969ffd24bb34b4",
          "blockNumber": "0x16d2d07",
          "transactionHash": "0xa98a25119e8833e8d6f8a6f9a301f0c4462d5fb20cdaff5d20af6e63c87dac80",
          "transactionIndex": "0x1",
          "logIndex": "0x0",
          "removed": false
        }
      ],
      "status": "0x1",
      "logsBloom": "0x00000000000000000000000000000000000000000000000000000000000000000000000000000000000000000000000002000000000000000000000000200000000000000000000000000000000000000000000000000000000000001000000000000000000000000000000000000000000000000000000000000000000000000000000000000000000000000000004000000000000000000000000000000000020000400000000000000800000000000000000000000000000001000000000000000000000000000000000000000000001000000000000000000000000000001010000000000000000000000000000000000000000000000004000000000000",
      "type": "0x2",
      "effectiveGasPrice": "0x5f5e100"
    },
    {
      "transactionHash": "0xc960e57b0cd9ade04cb2fee9ccbbf642daa4e96c8af4ef2197b12765170c847f",
      "transactionIndex": "0x1",
      "blockHash": "0x1eaba20d8c0332068b7fb54afbd1b183bb6fb088fb3195e4830fad2d3a8f1f36",
      "blockNumber": "0x16d2d24",
      "from": "0x5dCcCAAd516D68E01823AfF6E75dE8bE73fb57bC",
      "to": "0xFDA93151f6146f763D3A80Ddb4C5C7B268469465",
      "cumulativeGasUsed": "0xb5e0",
      "gasUsed": "0xb5e0",
      "contractAddress": null,
      "logs": [
        {
          "address": "0xFDA93151f6146f763D3A80Ddb4C5C7B268469465",
          "topics": [
            "0x8c5be1e5ebec7d5bd14f71427d1e84f3dd0314c0f7b2291e5b200ac8c7c3b925",
            "0x0000000000000000000000005dcccaad516d68e01823aff6e75de8be73fb57bc",
            "0x0000000000000000000000005ba874e13d2cf3161f89d1b1d1732d14226dbf16"
          ],
          "data": "0xffffffffffffffffffffffffffffffffffffffffffffffffffffffffffffffff",
          "blockHash": "0x1eaba20d8c0332068b7fb54afbd1b183bb6fb088fb3195e4830fad2d3a8f1f36",
          "blockNumber": "0x16d2d24",
          "transactionHash": "0xc960e57b0cd9ade04cb2fee9ccbbf642daa4e96c8af4ef2197b12765170c847f",
          "transactionIndex": "0x1",
          "logIndex": "0x0",
          "removed": false
        }
      ],
      "status": "0x1",
      "logsBloom": "0x00000010000000000000000000000000000000000000000400000000000000000000000000000000000000000000000042000000000000000000000000200000000000000000000000000000000000000000000000000000000000001000000000000000000000000000000000000000000000000000000000000000000000000000000000000000000000000000000000000000000000000000000000000000020000400000000000000000000000000000000000000000000001000000000000000000000000000000000000000000001000000000000000000000000000001010000000000000000000000000000000000000000000000000000000000000",
      "type": "0x2",
      "effectiveGasPrice": "0x5f5e100"
    },
    {
      "transactionHash": "0x100065095bdbf65596ca75eaa28e589846fee0b9efc8a233ba21269584c69a89",
      "transactionIndex": "0x2",
      "blockHash": "0xe7d1799992fabe5f93df1faeeefd4f043e9255fd59132d4e23bbbd150f36c817",
      "blockNumber": "0x16d2d40",
      "from": "0x5dCcCAAd516D68E01823AfF6E75dE8bE73fb57bC",
      "to": "0x5bA874E13D2Cf3161F89D1B1d1732D14226dBF16",
      "cumulativeGasUsed": "0x27a4eb",
      "gasUsed": "0x271e29",
      "contractAddress": null,
      "logs": [
        {
          "address": "0xE5dF461803a59292c6c03978c17857479c40bc46",
          "topics": [
            "0x40e9cecb9f5f1f1c5b9c97dec2917b7ee92e57ba5563708daca94dd84ad7112f",
            "0xac8cc9b4632fdb9b6bf31d331780efbf4418183d1ef7d3f48c21cbeb0cb86871",
            "0x0000000000000000000000005ba874e13d2cf3161f89d1b1d1732d14226dbf16"
          ],
          "data": "0xffffffffffffffffffffffffffffffffffffffffffffffffff935fefa86b15460000000000000000000000000000000000000000000000000068fe4e8b7e859100000000000000000000000000000000000000000000000000000001000276a40000000000000000000000000000000000000000000000000000000000000000fffffffffffffffffffffffffffffffffffffffffffffffffffffffffff276180000000000000000000000000000000000000000000000000000000000000fa0",
          "blockHash": "0xe7d1799992fabe5f93df1faeeefd4f043e9255fd59132d4e23bbbd150f36c817",
          "blockNumber": "0x16d2d40",
          "transactionHash": "0x100065095bdbf65596ca75eaa28e589846fee0b9efc8a233ba21269584c69a89",
          "transactionIndex": "0x2",
          "logIndex": "0x1",
          "removed": false
        },
        {
          "address": "0x5bA874E13D2Cf3161F89D1B1d1732D14226dBF16",
          "topics": [
            "0x41304facd9323d75b11bcdd609cb38effffdb05710f7caf0e9b16c6d9d709f50"
          ],
          "data": "0x000000000000000000000000000000000000000000000000000000000000002000000000000000000000000000000000000000000000000000000000000000214572726f723a2061203d3d2062206e6f7420736174697366696564205b696e745d00000000000000000000000000000000000000000000000000000000000000",
          "blockHash": "0xe7d1799992fabe5f93df1faeeefd4f043e9255fd59132d4e23bbbd150f36c817",
          "blockNumber": "0x16d2d40",
          "transactionHash": "0x100065095bdbf65596ca75eaa28e589846fee0b9efc8a233ba21269584c69a89",
          "transactionIndex": "0x2",
          "logIndex": "0x2",
          "removed": false
        },
        {
          "address": "0x5bA874E13D2Cf3161F89D1B1d1732D14226dBF16",
          "topics": [
            "0x2fe632779174374378442a8e978bccfbdcc1d6b2b0d81f7e8eb776ab2286f168"
          ],
          "data": "0x00000000000000000000000000000000000000000000000000000000000000400000000000000000000000000000000000000000000000000068fe4e8b7e8591000000000000000000000000000000000000000000000000000000000000000a2020202020204c65667400000000000000000000000000000000000000000000",
          "blockHash": "0xe7d1799992fabe5f93df1faeeefd4f043e9255fd59132d4e23bbbd150f36c817",
          "blockNumber": "0x16d2d40",
          "transactionHash": "0x100065095bdbf65596ca75eaa28e589846fee0b9efc8a233ba21269584c69a89",
          "transactionIndex": "0x2",
          "logIndex": "0x3",
          "removed": false
        },
        {
          "address": "0x5bA874E13D2Cf3161F89D1B1d1732D14226dBF16",
          "topics": [
            "0x2fe632779174374378442a8e978bccfbdcc1d6b2b0d81f7e8eb776ab2286f168"
          ],
          "data": "0x000000000000000000000000000000000000000000000000000000000000004000000000000000000000000000000000000000000000000029a2241af62c0000000000000000000000000000000000000000000000000000000000000000000a2020202020526967687400000000000000000000000000000000000000000000",
          "blockHash": "0xe7d1799992fabe5f93df1faeeefd4f043e9255fd59132d4e23bbbd150f36c817",
          "blockNumber": "0x16d2d40",
          "transactionHash": "0x100065095bdbf65596ca75eaa28e589846fee0b9efc8a233ba21269584c69a89",
          "transactionIndex": "0x2",
          "logIndex": "0x4",
          "removed": false
        },
        {
          "address": "0xA47757c742f4177dE4eEA192380127F8B62455F5",
          "topics": [
            "0xddf252ad1be2c89b69c2b068fc378daa952ba7f163c4a11628f55a4df523b3ef",
            "0x0000000000000000000000005dcccaad516d68e01823aff6e75de8be73fb57bc",
            "0x000000000000000000000000e5df461803a59292c6c03978c17857479c40bc46"
          ],
          "data": "0x000000000000000000000000000000000000000000000000006ca0105794eaba",
          "blockHash": "0xe7d1799992fabe5f93df1faeeefd4f043e9255fd59132d4e23bbbd150f36c817",
          "blockNumber": "0x16d2d40",
          "transactionHash": "0x100065095bdbf65596ca75eaa28e589846fee0b9efc8a233ba21269584c69a89",
          "transactionIndex": "0x2",
          "logIndex": "0x5",
          "removed": false
        },
        {
          "address": "0xA47757c742f4177dE4eEA192380127F8B62455F5",
          "topics": [
            "0x8c5be1e5ebec7d5bd14f71427d1e84f3dd0314c0f7b2291e5b200ac8c7c3b925",
            "0x0000000000000000000000005dcccaad516d68e01823aff6e75de8be73fb57bc",
            "0x0000000000000000000000005ba874e13d2cf3161f89d1b1d1732d14226dbf16"
          ],
          "data": "0xffffffffffffffffffffffffffffffffffffffffffffffffff935fefa86b1545",
          "blockHash": "0xe7d1799992fabe5f93df1faeeefd4f043e9255fd59132d4e23bbbd150f36c817",
          "blockNumber": "0x16d2d40",
          "transactionHash": "0x100065095bdbf65596ca75eaa28e589846fee0b9efc8a233ba21269584c69a89",
          "transactionIndex": "0x2",
          "logIndex": "0x6",
          "removed": false
        },
        {
          "address": "0xFDA93151f6146f763D3A80Ddb4C5C7B268469465",
          "topics": [
            "0xddf252ad1be2c89b69c2b068fc378daa952ba7f163c4a11628f55a4df523b3ef",
            "0x000000000000000000000000e5df461803a59292c6c03978c17857479c40bc46",
            "0x0000000000000000000000005dcccaad516d68e01823aff6e75de8be73fb57bc"
          ],
          "data": "0x0000000000000000000000000000000000000000000000000068fe4e8b7e8591",
          "blockHash": "0xe7d1799992fabe5f93df1faeeefd4f043e9255fd59132d4e23bbbd150f36c817",
          "blockNumber": "0x16d2d40",
          "transactionHash": "0x100065095bdbf65596ca75eaa28e589846fee0b9efc8a233ba21269584c69a89",
          "transactionIndex": "0x2",
          "logIndex": "0x7",
          "removed": false
        }
      ],
      "status": "0x1",
      "logsBloom": "0x00000010000000000000400000000100000000000000000402000000000000000000000000000400000000000000000042000000040000000000800000200200000000000000000000000008000000000000000000000020000000001000000000000040000800000000000000000000000000000000000000000010200010000000000000000000000000000000004000000100000000000000000040000000020000400000000000000800000000000000000000000000000001000001000000000002000000000100000000000000001000000000000000000000000100001010000000021004004000000000000000000000000000000004000000000000",
      "type": "0x2",
      "effectiveGasPrice": "0x5f5e100"
    }
  ],
  "libraries": [],
  "pending": [],
  "returns": {},
  "timestamp": 1710634263,
  "chain": 421614,
  "commit": "4804a6b"
}