{
  "transactions": [
    {
      "hash": "0xcb4e016d337cbb34941a5edd0d5ae79af969a887da1f308b51a49fabb2e6c32f",
      "transactionType": "CALL",
      "contractName": null,
      "contractAddress": "0xE5dF461803a59292c6c03978c17857479c40bc46",
      "function": "initialize((address,address,uint24,int24,address),uint160,bytes)",
      "arguments": [
        "(0xA47757c742f4177dE4eEA192380127F8B62455F5, 0xFDA93151f6146f763D3A80Ddb4C5C7B268469465, 4000, 10, 0x030e0A80f42E3b943a4599B6E3F1712214511386)",
        "79228162514264337593543950336",
        "0x0000000000000000000000000000000000000000000000000000000065f69ac8"
      ],
      "transaction": {
        "type": "0x02",
        "from": "0x5dcccaad516d68e01823aff6e75de8be73fb57bc",
        "to": "0xe5df461803a59292c6c03978c17857479c40bc46",
        "gas": "0x26d42",
        "value": "0x0",
        "data": "0x695c5bf5000000000000000000000000a47757c742f4177de4eea192380127f8b62455f5000000000000000000000000fda93151f6146f763d3a80ddb4c5c7b2684694650000000000000000000000000000000000000000000000000000000000000fa0000000000000000000000000000000000000000000000000000000000000000a000000000000000000000000030e0a80f42e3b943a4599b6e3f1712214511386000000000000000000000000000000000000000100000000000000000000000000000000000000000000000000000000000000000000000000000000000000e000000000000000000000000000000000000000000000000000000000000000200000000000000000000000000000000000000000000000000000000065f69ac8",
        "nonce": "0x26",
        "accessList": []
      },
      "additionalContracts": [],
      "isFixedGasLimit": false
    }
  ],
  "receipts": [
    {
      "transactionHash": "0xcb4e016d337cbb34941a5edd0d5ae79af969a887da1f308b51a49fabb2e6c32f",
      "transactionIndex": "0x1",
      "blockHash": "0xd27f076bd95d95c073fb1614bacea3029d1df6354e76512549d0722fa9424ae4",
      "blockNumber": "0x16eab3f",
      "from": "0x5dCcCAAd516D68E01823AfF6E75dE8bE73fb57bC",
      "to": "0xE5dF461803a59292c6c03978c17857479c40bc46",
      "cumulativeGasUsed": "0x1b247",
      "gasUsed": "0x1b247",
      "contractAddress": null,
      "logs": [
        {
          "address": "0xE5dF461803a59292c6c03978c17857479c40bc46",
          "topics": [
            "0x3fd553db44f207b1f41348cfc4d251860814af9eadc470e8e7895e4d120511f4",
            "0xb707601b547d329c2588a18b028d6b20ff75c5f6f364c133ad05b8785a1df7e3",
            "0x000000000000000000000000a47757c742f4177de4eea192380127f8b62455f5",
            "0x000000000000000000000000fda93151f6146f763d3a80ddb4c5c7b268469465"
          ],
          "data": "0x0000000000000000000000000000000000000000000000000000000000000fa0000000000000000000000000000000000000000000000000000000000000000a000000000000000000000000030e0a80f42e3b943a4599b6e3f1712214511386",
          "blockHash": "0xd27f076bd95d95c073fb1614bacea3029d1df6354e76512549d0722fa9424ae4",
          "blockNumber": "0x16eab3f",
          "transactionHash": "0xcb4e016d337cbb34941a5edd0d5ae79af969a887da1f308b51a49fabb2e6c32f",
          "transactionIndex": "0x1",
          "logIndex": "0x0",
          "removed": false
        }
      ],
      "status": "0x1",
      "logsBloom": "0x04000000000000000000400000000100000000000000000000000000000000000000000080000000000000000000000000000800000000000000800000000000000000000000000000000000000020000000000080000000200000000000000000000000000000000000000000000000000000000000000000000000000000000000000000000000000000000000000000000000000000000000000000000000000000000000000000000000000000000000000000000000000022000000100000000000000000000000000000000000000010000000000000000000000000040000000000000000000000000000000000000000000002000000000000000000",
      "type": "0x2",
      "effectiveGasPrice": "0x5f5e100"
    }
  ],
  "libraries": [],
  "pending": [],
  "returns": {},
  "timestamp": 1710660309,
  "chain": 421614,
  "commit": "d879b3f"
}