{
  "transactions": [
    {
      "hash": "0xc4d4c1fd21930538371d5fecf793fb74cca30faa6e5ce47ab25e339cb30e38c6",
      "transactionType": "CALL",
      "contractName": null,
      "contractAddress": "0xE5dF461803a59292c6c03978c17857479c40bc46",
      "function": "initialize((address,address,uint24,int24,address),uint160,bytes)",
      "arguments": [
        "(0xA47757c742f4177dE4eEA192380127F8B62455F5, 0xFDA93151f6146f763D3A80Ddb4C5C7B268469465, 4000, 10, 0x030eF8F38E149C7954B481208a2305F9D6B82E8e)",
        "79228162514264337593543950336",
        "0x0000000000000000000000000000000000000000000000000000000065f6a38d"
      ],
      "transaction": {
        "type": "0x02",
        "from": "0x5dcccaad516d68e01823aff6e75de8be73fb57bc",
        "to": "0xe5df461803a59292c6c03978c17857479c40bc46",
        "gas": "0x1dbb8",
        "value": "0x0",
        "data": "0x695c5bf5000000000000000000000000a47757c742f4177de4eea192380127f8b62455f5000000000000000000000000fda93151f6146f763d3a80ddb4c5c7b2684694650000000000000000000000000000000000000000000000000000000000000fa0000000000000000000000000000000000000000000000000000000000000000a000000000000000000000000030ef8f38e149c7954b481208a2305f9d6b82e8e000000000000000000000000000000000000000100000000000000000000000000000000000000000000000000000000000000000000000000000000000000e000000000000000000000000000000000000000000000000000000000000000200000000000000000000000000000000000000000000000000000000065f6a38d",
        "nonce": "0x2b",
        "accessList": []
      },
      "additionalContracts": [],
      "isFixedGasLimit": false
    }
  ],
  "receipts": [
    {
      "transactionHash": "0xc4d4c1fd21930538371d5fecf793fb74cca30faa6e5ce47ab25e339cb30e38c6",
      "transactionIndex": "0x2",
      "blockHash": "0x7456d4c2e08224210d53cd9054912831ecca57f524b1a3132eecbcc5ab7c9111",
      "blockNumber": "0x16ecc61",
      "from": "0x5dCcCAAd516D68E01823AfF6E75dE8bE73fb57bC",
      "to": "0xE5dF461803a59292c6c03978c17857479c40bc46",
      "cumulativeGasUsed": "0x37735",
      "gasUsed": "0x15779",
      "contractAddress": null,
      "logs": [
        {
          "address": "0xE5dF461803a59292c6c03978c17857479c40bc46",
          "topics": [
            "0x3fd553db44f207b1f41348cfc4d251860814af9eadc470e8e7895e4d120511f4",
            "0xcc8fda3516a2362da0bc1e5a33ccbf8913616bc400cac3d7ae6e0e9dc5097834",
            "0x000000000000000000000000a47757c742f4177de4eea192380127f8b62455f5",
            "0x000000000000000000000000fda93151f6146f763d3a80ddb4c5c7b268469465"
          ],
          "data": "0x0000000000000000000000000000000000000000000000000000000000000fa0000000000000000000000000000000000000000000000000000000000000000a000000000000000000000000030ef8f38e149c7954b481208a2305f9d6b82e8e",
          "blockHash": "0x7456d4c2e08224210d53cd9054912831ecca57f524b1a3132eecbcc5ab7c9111",
          "blockNumber": "0x16ecc61",
          "transactionHash": "0xc4d4c1fd21930538371d5fecf793fb74cca30faa6e5ce47ab25e339cb30e38c6",
          "transactionIndex": "0x2",
          "logIndex": "0x3",
          "removed": false
        }
      ],
      "status": "0x1",
      "logsBloom": "0x04000000000000000000400000000140000000000000000000000000000000000000000080000000000000000000000000000000000000000000800000000000000000000000000000000000000020000000000000000000200000000000000000000000000000000000000010000000000000000000000000000000000000000000000000000000000000000000000000000000000000000000000000000000000000000000000000000000000000000000000000000000000002000040100000000000000000000000000000000000000010000000000000000000000000040000000000000000000000000000000000000000000002000000000000000000",
      "type": "0x2",
      "effectiveGasPrice": "0x5f5e100"
    }
  ],
  "libraries": [],
  "pending": [],
  "returns": {},
  "timestamp": 1710662555,
  "chain": 421614,
  "commit": "3cb35f7"
}