{
  "transactions": [
    {
      "hash": "0x32ac0a7f9d16a4bf569396ba3bb969959cd9b2200ab9ed34a7dd512ddd769009",
      "transactionType": "CALL",
      "contractName": null,
      "contractAddress": "0xE5dF461803a59292c6c03978c17857479c40bc46",
      "function": "initialize((address,address,uint24,int24,address),uint160,bytes)",
      "arguments": [
        "(0xA47757c742f4177dE4eEA192380127F8B62455F5, 0xFDA93151f6146f763D3A80Ddb4C5C7B268469465, 4000, 10, 0x030418916cb8A600dc02d307204dD8828b3aA179)",
        "79228162514264337593543950336",
        "0x0000000000000000000000000000000000000000000000000000000065f67526"
      ],
      "transaction": {
        "type": "0x02",
        "from": "0x5dcccaad516d68e01823aff6e75de8be73fb57bc",
        "to": "0xe5df461803a59292c6c03978c17857479c40bc46",
        "gas": "0x2ab22",
        "value": "0x0",
        "data": "0x695c5bf5000000000000000000000000a47757c742f4177de4eea192380127f8b62455f5000000000000000000000000fda93151f6146f763d3a80ddb4c5c7b2684694650000000000000000000000000000000000000000000000000000000000000fa0000000000000000000000000000000000000000000000000000000000000000a000000000000000000000000030418916cb8a600dc02d307204dd8828b3aa179000000000000000000000000000000000000000100000000000000000000000000000000000000000000000000000000000000000000000000000000000000e000000000000000000000000000000000000000000000000000000000000000200000000000000000000000000000000000000000000000000000000065f67526",
        "nonce": "0x1a",
        "accessList": []
      },
      "additionalContracts": [],
      "isFixedGasLimit": false
    }
  ],
  "receipts": [
    {
      "transactionHash": "0x32ac0a7f9d16a4bf569396ba3bb969959cd9b2200ab9ed34a7dd512ddd769009",
      "transactionIndex": "0x3",
      "blockHash": "0xd5ff4a32498a3977534189a3afb59012742160a36f1db9a579fa10bda9a38634",
      "blockNumber": "0x16e1b7e",
      "from": "0x5dCcCAAd516D68E01823AfF6E75dE8bE73fb57bC",
      "to": "0xE5dF461803a59292c6c03978c17857479c40bc46",
      "cumulativeGasUsed": "0x1a4309",
      "gasUsed": "0x1d540",
      "contractAddress": null,
      "logs": [
        {
          "address": "0xE5dF461803a59292c6c03978c17857479c40bc46",
          "topics": [
            "0x3fd553db44f207b1f41348cfc4d251860814af9eadc470e8e7895e4d120511f4",
            "0x648af213c0fe0b83d427791f9760c2e7a8691925c94cd9ae97269a4758839457",
            "0x000000000000000000000000a47757c742f4177de4eea192380127f8b62455f5",
            "0x000000000000000000000000fda93151f6146f763d3a80ddb4c5c7b268469465"
          ],
          "data": "0x0000000000000000000000000000000000000000000000000000000000000fa0000000000000000000000000000000000000000000000000000000000000000a000000000000000000000000030418916cb8a600dc02d307204dd8828b3aa179",
          "blockHash": "0xd5ff4a32498a3977534189a3afb59012742160a36f1db9a579fa10bda9a38634",
          "blockNumber": "0x16e1b7e",
          "transactionHash": "0x32ac0a7f9d16a4bf569396ba3bb969959cd9b2200ab9ed34a7dd512ddd769009",
          "transactionIndex": "0x3",
          "logIndex": "0x5",
          "removed": false
        }
      ],
      "status": "0x1",
      "logsBloom": "0x04010000000000000000400000000100000000000000000000000000000000000000000080000000000000000000000000000000000000000000800000000000000000000000000000000000000020000000000000000000200000000000000000000000000000000000000000000000000000000000000000000000000000000000000000000000000000000000000008000000000000000000000000000000200000000000000000000000000000000000000000000000000002000000100000000000000000000000000000000000000010000000000000000000000000040000000000000000000000000000000000000000000002000000000000000000",
      "type": "0x2",
      "effectiveGasPrice": "0x5f5e100"
    }
  ],
  "libraries": [],
  "pending": [],
  "returns": {},
  "timestamp": 1710650675,
  "chain": 421614,
  "commit": "9843b1b"
}