{
  "transactions": [
    {
      "hash": "0xfb1b980e87a81cefb42beca1b002707a5d5e17036f7ea7289f59a9ddbaf1bfaf",
      "transactionType": "CALL",
      "contractName": null,
      "contractAddress": "0xE5dF461803a59292c6c03978c17857479c40bc46",
      "function": "initialize((address,address,uint24,int24,address),uint160,bytes)",
      "arguments": [
        "(0xA47757c742f4177dE4eEA192380127F8B62455F5, 0xFDA93151f6146f763D3A80Ddb4C5C7B268469465, 4000, 10, 0x030C65FFc979C367e58DE454bBB5841bF7aF8573)",
        "79228162514264337593543950336",
        "0x0000000000000000000000000000000000000000000000000000000066055898"
      ],
      "transaction": {
        "type": "0x02",
        "from": "0x5dcccaad516d68e01823aff6e75de8be73fb57bc",
        "to": "0xe5df461803a59292c6c03978c17857479c40bc46",
        "gas": "0x11ac0",
        "value": "0x0",
        "data": "0x695c5bf5000000000000000000000000a47757c742f4177de4eea192380127f8b62455f5000000000000000000000000fda93151f6146f763d3a80ddb4c5c7b2684694650000000000000000000000000000000000000000000000000000000000000fa0000000000000000000000000000000000000000000000000000000000000000a000000000000000000000000030c65ffc979c367e58de454bbb5841bf7af8573000000000000000000000000000000000000000100000000000000000000000000000000000000000000000000000000000000000000000000000000000000e000000000000000000000000000000000000000000000000000000000000000200000000000000000000000000000000000000000000000000000000066055898",
        "nonce": "0x30",
        "accessList": []
      },
      "additionalContracts": [],
      "isFixedGasLimit": false
    }
  ],
  "receipts": [
    {
      "transactionHash": "0xfb1b980e87a81cefb42beca1b002707a5d5e17036f7ea7289f59a9ddbaf1bfaf",
      "transactionIndex": "0x2",
      "blockHash": "0x94467cfde13e10918c0648066496ee0d25cab28cea15161f2f148c676fbed63c",
      "blockNumber": "0x1a87baf",
      "from": "0x5dCcCAAd516D68E01823AfF6E75dE8bE73fb57bC",
      "to": "0xE5dF461803a59292c6c03978c17857479c40bc46",
      "cumulativeGasUsed": "0x17dc5d",
      "gasUsed": "0xd980",
      "contractAddress": null,
      "logs": [
        {
          "address": "0xE5dF461803a59292c6c03978c17857479c40bc46",
          "topics": [
            "0x3fd553db44f207b1f41348cfc4d251860814af9eadc470e8e7895e4d120511f4",
            "0x3d28010ea8d317e6253d9657546ec5a268aabe64f811da773363a0cfdce4cdfd",
            "0x000000000000000000000000a47757c742f4177de4eea192380127f8b62455f5",
            "0x000000000000000000000000fda93151f6146f763d3a80ddb4c5c7b268469465"
          ],
          "data": "0x0000000000000000000000000000000000000000000000000000000000000fa0000000000000000000000000000000000000000000000000000000000000000a000000000000000000000000030c65ffc979c367e58de454bbb5841bf7af8573",
          "blockHash": "0x94467cfde13e10918c0648066496ee0d25cab28cea15161f2f148c676fbed63c",
          "blockNumber": "0x1a87baf",
          "transactionHash": "0xfb1b980e87a81cefb42beca1b002707a5d5e17036f7ea7289f59a9ddbaf1bfaf",
          "transactionIndex": "0x2",
          "logIndex": "0x5",
          "removed": false
        }
      ],
      "status": "0x1",
      "logsBloom": "0x04000000000000000000400000000100000000000000000000000000000000000000000080000000000000000000000000000000000000000000800000000000000000000000000000000000000020000000000000000000200000000000000000000000000000000000000000000000000000000000000000000000020000400000000000000000000000000000000000000000000000000000000000000000000000000000000000000000000000000000000000000000000002000000100000000000000000000000000000000000000010000000000000080000000000040000000000000000000000000000000000000000000002000000000000000000",
      "type": "0x2",
      "effectiveGasPrice": "0x5f5e100"
    }
  ],
  "libraries": [],
  "pending": [],
  "returns": {},
  "timestamp": 1711626405,
  "chain": 421614,
  "commit": "dbab029"
}