{
  "transactions": [
    {
      "hash": "0x84bf589a8d9478f4b4be0ae305e8a785f62b82c3c19945fdf12311c947299a62",
      "transactionType": "CALL",
      "contractName": null,
      "contractAddress": "0xE5dF461803a59292c6c03978c17857479c40bc46",
      "function": "initialize((address,address,uint24,int24,address),uint160,bytes)",
      "arguments": [
        "(0xA47757c742f4177dE4eEA192380127F8B62455F5, 0xFDA93151f6146f763D3A80Ddb4C5C7B268469465, 4000, 10, 0x0304C8bd9b6e2C7C5c70fb62F812c6e2b00D5BA3)",
        "79228162514264337593543950336",
        "0x0000000000000000000000000000000000000000000000000000000065f66bf3"
      ],
      "transaction": {
        "type": "0x02",
        "from": "0x5dcccaad516d68e01823aff6e75de8be73fb57bc",
        "to": "0xe5df461803a59292c6c03978c17857479c40bc46",
        "gas": "0x1888d",
        "value": "0x0",
        "data": "0x695c5bf5000000000000000000000000a47757c742f4177de4eea192380127f8b62455f5000000000000000000000000fda93151f6146f763d3a80ddb4c5c7b2684694650000000000000000000000000000000000000000000000000000000000000fa0000000000000000000000000000000000000000000000000000000000000000a0000000000000000000000000304c8bd9b6e2c7c5c70fb62f812c6e2b00d5ba3000000000000000000000000000000000000000100000000000000000000000000000000000000000000000000000000000000000000000000000000000000e000000000000000000000000000000000000000000000000000000000000000200000000000000000000000000000000000000000000000000000000065f66bf3",
        "nonce": "0x11",
        "accessList": []
      },
      "additionalContracts": [],
      "isFixedGasLimit": false
    }
  ],
  "receipts": [
    {
      "transactionHash": "0x84bf589a8d9478f4b4be0ae305e8a785f62b82c3c19945fdf12311c947299a62",
      "transactionIndex": "0x1",
      "blockHash": "0x638e1addba1536f1318a01b8197a4dd61cfcba4b012e1b347eb9113cba220b7d",
      "blockNumber": "0x16df9f9",
      "from": "0x5dCcCAAd516D68E01823AfF6E75dE8bE73fb57bC",
      "to": "0xE5dF461803a59292c6c03978c17857479c40bc46",
      "cumulativeGasUsed": "0x12090",
      "gasUsed": "0x12090",
      "contractAddress": null,
      "logs": [
        {
          "address": "0xE5dF461803a59292c6c03978c17857479c40bc46",
          "topics": [
            "0x3fd553db44f207b1f41348cfc4d251860814af9eadc470e8e7895e4d120511f4",
            "0x8d161374ff7aae0d75bd014d7210b0de3d0ad9ff6fcb914d61292487765121f8",
            "0x000000000000000000000000a47757c742f4177de4eea192380127f8b62455f5",
            "0x000000000000000000000000fda93151f6146f763d3a80ddb4c5c7b268469465"
          ],
          "data": "0x0000000000000000000000000000000000000000000000000000000000000fa0000000000000000000000000000000000000000000000000000000000000000a0000000000000000000000000304c8bd9b6e2c7c5c70fb62f812c6e2b00d5ba3",
          "blockHash": "0x638e1addba1536f1318a01b8197a4dd61cfcba4b012e1b347eb9113cba220b7d",
          "blockNumber": "0x16df9f9",
          "transactionHash": "0x84bf589a8d9478f4b4be0ae305e8a785f62b82c3c19945fdf12311c947299a62",
          "transactionIndex": "0x1",
          "logIndex": "0x0",
          "removed": false
        }
      ],
      "status": "0x1",
      "logsBloom": "0x04000000000000000000400000000100000000000000000000000000000000000000000080000000000000000004000000000000000000000000800000000000000000000000000000000080000020000000000000000000200000000000000000000000000000000000000000000000000000000000000000000000000000000000000000000000000000000000000000000000000000000000000000000000000000000000000000000000000000000000000000000000000002000000100000000000008000000000000000000000000010000000000000000000000000040000000000000000000000000000000000000000000002000000000000000000",
      "type": "0x2",
      "effectiveGasPrice": "0x5f5e100"
    }
  ],
  "libraries": [],
  "pending": [],
  "returns": {},
  "timestamp": 1710648320,
  "chain": 421614,
  "commit": "8710d15"
}