{
  "transactions": [
    {
      "hash": "0xe30ae9bf5a97f260848e1117295a8aa6230dce4bdf00de955b50edd7751c8032",
      "transactionType": "CALL",
      "contractName": null,
      "contractAddress": "0xE5dF461803a59292c6c03978c17857479c40bc46",
      "function": "initialize((address,address,uint24,int24,address),uint160,bytes)",
      "arguments": [
        "(0xA47757c742f4177dE4eEA192380127F8B62455F5, 0xFDA93151f6146f763D3A80Ddb4C5C7B268469465, 4000, 10, 0x0301cF874CDB90ea311354eC6518aeF36F00C5FE)",
        "79228162514264337593543950336",
        "0x0000000000000000000000000000000000000000000000000000000065f630de"
      ],
      "transaction": {
        "type": "0x02",
        "from": "0x5dcccaad516d68e01823aff6e75de8be73fb57bc",
        "to": "0xe5df461803a59292c6c03978c17857479c40bc46",
        "gas": "0x11ab0",
        "value": "0x0",
        "data": "0x695c5bf5000000000000000000000000a47757c742f4177de4eea192380127f8b62455f5000000000000000000000000fda93151f6146f763d3a80ddb4c5c7b2684694650000000000000000000000000000000000000000000000000000000000000fa0000000000000000000000000000000000000000000000000000000000000000a0000000000000000000000000301cf874cdb90ea311354ec6518aef36f00c5fe000000000000000000000000000000000000000100000000000000000000000000000000000000000000000000000000000000000000000000000000000000e000000000000000000000000000000000000000000000000000000000000000200000000000000000000000000000000000000000000000000000000065f630de",
        "nonce": "0x6",
        "accessList": []
      },
      "additionalContracts": [],
      "isFixedGasLimit": false
    }
  ],
  "receipts": [
    {
      "transactionHash": "0xe30ae9bf5a97f260848e1117295a8aa6230dce4bdf00de955b50edd7751c8032",
      "transactionIndex": "0x1",
      "blockHash": "0x675c4c30e792e6c2338b7a8c52a398e33327dc167067c87d147f7c4906c6b519",
      "blockNumber": "0x16d1da4",
      "from": "0x5dCcCAAd516D68E01823AfF6E75dE8bE73fb57bC",
      "to": "0xE5dF461803a59292c6c03978c17857479c40bc46",
      "cumulativeGasUsed": "0xd974",
      "gasUsed": "0xd974",
      "contractAddress": null,
      "logs": [
        {
          "address": "0xE5dF461803a59292c6c03978c17857479c40bc46",
          "topics": [
            "0x3fd553db44f207b1f41348cfc4d251860814af9eadc470e8e7895e4d120511f4",
            "0xac8cc9b4632fdb9b6bf31d331780efbf4418183d1ef7d3f48c21cbeb0cb86871",
            "0x000000000000000000000000a47757c742f4177de4eea192380127f8b62455f5",
            "0x000000000000000000000000fda93151f6146f763d3a80ddb4c5c7b268469465"
          ],
          "data": "0x0000000000000000000000000000000000000000000000000000000000000fa0000000000000000000000000000000000000000000000000000000000000000a0000000000000000000000000301cf874cdb90ea311354ec6518aef36f00c5fe",
          "blockHash": "0x675c4c30e792e6c2338b7a8c52a398e33327dc167067c87d147f7c4906c6b519",
          "blockNumber": "0x16d1da4",
          "transactionHash": "0xe30ae9bf5a97f260848e1117295a8aa6230dce4bdf00de955b50edd7751c8032",
          "transactionIndex": "0x1",
          "logIndex": "0x0",
          "removed": false
        }
      ],
      "status": "0x1",
      "logsBloom": "0x04000000000000000000400000000100000000000000000000000000000000000000000080000400000000000000000000000000000000000000800000000000000000000000000000000000000020000000000000000000200000000000000000000000000000000000000000000000000000000000000000000000000010000000000000000000000000000000000000000000000000000000000000000000000000000000000000000000000000000000000000000000000002000000100000000000000000000000000000000000000010000000000000000000000000040000000000000004000000000000000000000000000002000000000000000000",
      "type": "0x2",
      "effectiveGasPrice": "0x5f5e100"
    }
  ],
  "libraries": [],
  "pending": [],
  "returns": {},
  "timestamp": 1710633197,
  "chain": 421614,
  "commit": "abf6956"
}